{
  "contractName": "DepositHolder",
  "abi": [
    {
      "constant": false,
      "inputs": [
        {
          "name": "newOwner",
          "type": "address"
        }
      ],
      "name": "setOwner",
      "outputs": [
        {
          "name": "success",
          "type": "bool"
        }
      ],
      "payable": false,
      "stateMutability": "nonpayable",
      "type": "function"
    },
    {
      "constant": true,
      "inputs": [],
      "name": "getOwner",
      "outputs": [
        {
          "name": "owner",
          "type": "address"
        }
      ],
      "payable": false,
      "stateMutability": "view",
      "type": "function"
    },
    {
      "constant": true,
      "inputs": [],
      "name": "getDeposit",
      "outputs": [
        {
          "name": "weis",
          "type": "uint256"
        }
      ],
      "payable": false,
      "stateMutability": "view",
      "type": "function"
    },
    {
      "constant": false,
      "inputs": [
        {
          "name": "depositWeis",
          "type": "uint256"
        }
      ],
      "name": "setDeposit",
      "outputs": [
        {
          "name": "success",
          "type": "bool"
        }
      ],
      "payable": false,
      "stateMutability": "nonpayable",
      "type": "function"
    },
    {
      "inputs": [
        {
          "name": "_depositAmount",
          "type": "uint256"
        }
      ],
      "payable": false,
      "stateMutability": "nonpayable",
      "type": "constructor"
    },
    {
      "anonymous": false,
      "inputs": [
        {
          "indexed": true,
          "name": "sender",
          "type": "address"
        },
        {
          "indexed": false,
          "name": "depositWeis",
          "type": "uint256"
        }
      ],
      "name": "LogDepositSet",
      "type": "event"
    },
    {
      "anonymous": false,
      "inputs": [
        {
          "indexed": true,
          "name": "previousOwner",
          "type": "address"
        },
        {
          "indexed": true,
          "name": "newOwner",
          "type": "address"
        }
      ],
      "name": "LogOwnerSet",
      "type": "event"
    }
  ],
  "bytecode": "0x6060604052341561000f57600080fd5b6040516020806104f783398101604052808051906020019091905050336000806101000a81548173ffffffffffffffffffffffffffffffffffffffff021916908373ffffffffffffffffffffffffffffffffffffffff1602179055506000811415151561007b57600080fd5b8060018190555050610465806100926000396000f300606060405260043610610062576000357c0100000000000000000000000000000000000000000000000000000000900463ffffffff16806313af403514610067578063893d20e8146100b8578063c399ec881461010d578063f5bade6614610136575b600080fd5b341561007257600080fd5b61009e600480803573ffffffffffffffffffffffffffffffffffffffff16906020019091905050610171565b604051808215151515815260200191505060405180910390f35b34156100c357600080fd5b6100cb61032a565b604051808273ffffffffffffffffffffffffffffffffffffffff1673ffffffffffffffffffffffffffffffffffffffff16815260200191505060405180910390f35b341561011857600080fd5b610120610353565b6040518082815260200191505060405180910390f35b341561014157600080fd5b610157600480803590602001909190505061035d565b604051808215151515815260200191505060405180910390f35b60008060009054906101000a900473ffffffffffffffffffffffffffffffffffffffff1673ffffffffffffffffffffffffffffffffffffffff163373ffffffffffffffffffffffffffffffffffffffff161415156101ce57600080fd5b6000809054906101000a900473ffffffffffffffffffffffffffffffffffffffff1673ffffffffffffffffffffffffffffffffffffffff168273ffffffffffffffffffffffffffffffffffffffff161415151561022a57600080fd5b600073ffffffffffffffffffffffffffffffffffffffff168273ffffffffffffffffffffffffffffffffffffffff161415151561026657600080fd5b8173ffffffffffffffffffffffffffffffffffffffff166000809054906101000a900473ffffffffffffffffffffffffffffffffffffffff1673ffffffffffffffffffffffffffffffffffffffff167fa1d2149652d81eb35c360c115fc7ac594124cb1ea8a5a33e9a7f5768c62869fb60405160405180910390a3816000806101000a81548173ffffffffffffffffffffffffffffffffffffffff021916908373ffffffffffffffffffffffffffffffffffffffff16021790555060019050919050565b60008060009054906101000a900473ffffffffffffffffffffffffffffffffffffffff16905090565b6000600154905090565b60008060009054906101000a900473ffffffffffffffffffffffffffffffffffffffff1673ffffffffffffffffffffffffffffffffffffffff163373ffffffffffffffffffffffffffffffffffffffff161415156103ba57600080fd5b600082141515156103ca57600080fd5b60015482141515156103db57600080fd5b81600181905550600190503373ffffffffffffffffffffffffffffffffffffffff167ffa53ebd539f52eb4ef352ffacb2f8f5f8080cd8bb7ebb2f1acab3e1ce4bd65cb836040518082815260200191505060405180910390a29190505600a165627a7a72305820b9f56932fdcf7658c552d65fdaf186822fff70f7d0b9112e021ad77d867adb890029",
  "source": "pragma solidity ^0.4.13;\n\nimport \"./Owned.sol\";\nimport \"./interfaces/DepositHolderI.sol\";\n\ncontract DepositHolder is Owned, DepositHolderI {\n    uint private depositAmount;\n\n    function DepositHolder(uint _depositAmount) {\n        require(_depositAmount != 0);\n        depositAmount = _depositAmount;\n    }\n\n    /**\n     * Called by the owner of the DepositHolder.\n     *     It should roll back if the caller is not the owner of the contract.\n     *     It should roll back if the argument passed is 0.\n     *     It should roll back if the argument is no different from the current deposit.\n     * @param depositWeis The value of the deposit being set, measure in weis.\n     * @return Whether the action was successful.\n     * Emits LogDepositSet.\n     */\n    function setDeposit(uint depositWeis)\n        public fromOwner\n        returns(bool success)\n    {\n        require(depositWeis != 0);\n        require(depositWeis != depositAmount);\n\n        depositAmount = depositWeis;\n\n        success = true;\n        LogDepositSet(msg.sender, depositWeis);\n    }\n\n    /**\n     * @return The base price, then to be multiplied by the multiplier, a given vehicle\n     * needs to deposit to enter the road system.\n     */\n    function getDeposit()\n        constant\n        public\n        returns(uint weis)\n    {\n        weis = depositAmount;\n    }\n\n    /*\n     * You need to create:\n     *\n     * - a contract named `DepositHolder` that:\n     *     - is `OwnedI`, and `DepositHolderI`.\n     *     - has a constructor that takes:\n     *         - one `uint` parameter, the initial deposit wei value, which cannot be 0.\n     */        \n}",
  "sourcePath": "/Users/halovast/DAPPS/contractFactory/exam-step-2/contracts/DepositHolder.sol",
  "compiler": {
    "name": "solc",
    "version": "0.4.18+commit.9cf6e910.Emscripten.clang"
  },
  "schemaVersion": "1.0.1",
  "updatedAt": "2018-02-28T22:58:15.297Z"
}