{
  "contractName": "MultiplierHolder",
  "abi": [
    {
      "constant": false,
      "inputs": [
        {
          "name": "newOwner",
          "type": "address"
        }
      ],
      "name": "setOwner",
      "outputs": [
        {
          "name": "success",
          "type": "bool"
        }
      ],
      "payable": false,
      "stateMutability": "nonpayable",
      "type": "function"
    },
    {
      "constant": false,
      "inputs": [
        {
          "name": "vehicleType",
          "type": "uint256"
        },
        {
          "name": "multiplier",
          "type": "uint256"
        }
      ],
      "name": "setMultiplier",
      "outputs": [
        {
          "name": "success",
          "type": "bool"
        }
      ],
      "payable": false,
      "stateMutability": "nonpayable",
      "type": "function"
    },
    {
      "constant": true,
      "inputs": [],
      "name": "getOwner",
      "outputs": [
        {
          "name": "owner",
          "type": "address"
        }
      ],
      "payable": false,
      "stateMutability": "view",
      "type": "function"
    },
    {
      "constant": true,
      "inputs": [
        {
          "name": "vehicleType",
          "type": "uint256"
        }
      ],
      "name": "getMultiplier",
      "outputs": [
        {
          "name": "multiplier",
          "type": "uint256"
        }
      ],
      "payable": false,
      "stateMutability": "view",
      "type": "function"
    },
    {
      "anonymous": false,
      "inputs": [
        {
          "indexed": true,
          "name": "sender",
          "type": "address"
        },
        {
          "indexed": true,
          "name": "vehicleType",
          "type": "uint256"
        },
        {
          "indexed": false,
          "name": "multiplier",
          "type": "uint256"
        }
      ],
      "name": "LogMultiplierSet",
      "type": "event"
    },
    {
      "anonymous": false,
      "inputs": [
        {
          "indexed": true,
          "name": "previousOwner",
          "type": "address"
        },
        {
          "indexed": true,
          "name": "newOwner",
          "type": "address"
        }
      ],
      "name": "LogOwnerSet",
      "type": "event"
    }
  ],
  "bytecode": "0x6060604052336000806101000a81548173ffffffffffffffffffffffffffffffffffffffff021916908373ffffffffffffffffffffffffffffffffffffffff1602179055506104b3806100536000396000f300606060405260043610610062576000357c0100000000000000000000000000000000000000000000000000000000900463ffffffff16806313af403514610067578063333271d0146100b8578063893d20e8146100fc578063adf8252d14610151575b600080fd5b341561007257600080fd5b61009e600480803573ffffffffffffffffffffffffffffffffffffffff16906020019091905050610188565b604051808215151515815260200191505060405180910390f35b34156100c357600080fd5b6100e26004808035906020019091908035906020019091905050610341565b604051808215151515815260200191505060405180910390f35b341561010757600080fd5b61010f610441565b604051808273ffffffffffffffffffffffffffffffffffffffff1673ffffffffffffffffffffffffffffffffffffffff16815260200191505060405180910390f35b341561015c57600080fd5b610172600480803590602001909190505061046a565b6040518082815260200191505060405180910390f35b60008060009054906101000a900473ffffffffffffffffffffffffffffffffffffffff1673ffffffffffffffffffffffffffffffffffffffff163373ffffffffffffffffffffffffffffffffffffffff161415156101e557600080fd5b6000809054906101000a900473ffffffffffffffffffffffffffffffffffffffff1673ffffffffffffffffffffffffffffffffffffffff168273ffffffffffffffffffffffffffffffffffffffff161415151561024157600080fd5b600073ffffffffffffffffffffffffffffffffffffffff168273ffffffffffffffffffffffffffffffffffffffff161415151561027d57600080fd5b8173ffffffffffffffffffffffffffffffffffffffff166000809054906101000a900473ffffffffffffffffffffffffffffffffffffffff1673ffffffffffffffffffffffffffffffffffffffff167fa1d2149652d81eb35c360c115fc7ac594124cb1ea8a5a33e9a7f5768c62869fb60405160405180910390a3816000806101000a81548173ffffffffffffffffffffffffffffffffffffffff021916908373ffffffffffffffffffffffffffffffffffffffff16021790555060019050919050565b60008060009054906101000a900473ffffffffffffffffffffffffffffffffffffffff1673ffffffffffffffffffffffffffffffffffffffff163373ffffffffffffffffffffffffffffffffffffffff1614151561039e57600080fd5b600083141515156103ae57600080fd5b816001600085815260200190815260200160002054141515156103d057600080fd5b816001600085815260200190815260200160002081905550823373ffffffffffffffffffffffffffffffffffffffff167f5e168e70d5925560e1407b68dc2495afbc25b36217cc6e4167b2cf3f28a46ef1846040518082815260200191505060405180910390a36001905092915050565b60008060009054906101000a900473ffffffffffffffffffffffffffffffffffffffff16905090565b6000600160008381526020019081526020016000205490509190505600a165627a7a723058200af8a6e7e6246580c01bc84bd1c2f313e06807b24c53dbf8bdd52a052b4d0a560029",
  "source": "pragma solidity ^0.4.13;\n\nimport \"./Owned.sol\";\nimport \"./interfaces/MultiplierHolderI.sol\";\n\ncontract MultiplierHolder is Owned, MultiplierHolderI {\n    mapping(uint=>uint) multipliersList;\n\n    /**\n     * Called by the owner of the TollBoothOperator.\n     *   Can be used to update a value.\n     *   It should roll back if the vehicle type is 0.\n     *   Setting the multiplier to 0 is equivalent to removing it and is acceptable.\n     *   It should roll back if the same multiplier is already set to the vehicle type.\n     * @param vehicleType The type of the vehicle being set.\n     * @param multiplier The multiplier to use.\n     * @return Whether the action was successful.\n     * Emits LogMultiplierSet.\n     */\n    function setMultiplier(\n            uint vehicleType,\n            uint multiplier)\n        public fromOwner\n        returns(bool success)\n    {\n        require(vehicleType != 0);\n        require(multipliersList[vehicleType] != multiplier);\n\n        multipliersList[vehicleType] = multiplier;\n\n        LogMultiplierSet(msg.sender, vehicleType, multiplier);\n        success = true;\n    }\n\n    /**\n     * @param vehicleType The type of vehicle whose multiplier we want\n     *     It should accept a vehicle type equal to 0.\n     * @return The multiplier for this vehicle type.\n     *     A 0 value indicates a non-existent multiplier.\n     */\n    function getMultiplier(uint vehicleType)\n        constant\n        public\n        returns(uint multiplier)\n    {\n        multiplier = multipliersList[vehicleType];\n    }\n\n    /*\n     * You need to create:\n     *\n     * - a contract named `MultiplierHolder` that:\n     *     - is `OwnedI` and `MultiplierHolderI`.\n     *     - has a constructor that takes no parameter.\n     */        \n}",
  "sourcePath": "/Users/halovast/DAPPS/contractFactory/exam-step-2/contracts/MultiplierHolder.sol",
  "compiler": {
    "name": "solc",
    "version": "0.4.18+commit.9cf6e910.Emscripten.clang"
  },
  "schemaVersion": "1.0.1",
  "updatedAt": "2018-02-28T22:58:15.299Z"
}