{
  "contractName": "Owned",
  "abi": [
    {
      "constant": false,
      "inputs": [
        {
          "name": "newOwner",
          "type": "address"
        }
      ],
      "name": "setOwner",
      "outputs": [
        {
          "name": "success",
          "type": "bool"
        }
      ],
      "payable": false,
      "stateMutability": "nonpayable",
      "type": "function"
    },
    {
      "constant": true,
      "inputs": [],
      "name": "getOwner",
      "outputs": [
        {
          "name": "owner",
          "type": "address"
        }
      ],
      "payable": false,
      "stateMutability": "view",
      "type": "function"
    },
    {
      "inputs": [],
      "payable": false,
      "stateMutability": "nonpayable",
      "type": "constructor"
    },
    {
      "anonymous": false,
      "inputs": [
        {
          "indexed": true,
          "name": "previousOwner",
          "type": "address"
        },
        {
          "indexed": true,
          "name": "newOwner",
          "type": "address"
        }
      ],
      "name": "LogOwnerSet",
      "type": "event"
    }
  ],
  "bytecode": "0x6060604052341561000f57600080fd5b336000806101000a81548173ffffffffffffffffffffffffffffffffffffffff021916908373ffffffffffffffffffffffffffffffffffffffff1602179055506103058061005e6000396000f30060606040526004361061004c576000357c0100000000000000000000000000000000000000000000000000000000900463ffffffff16806313af403514610051578063893d20e8146100a2575b600080fd5b341561005c57600080fd5b610088600480803573ffffffffffffffffffffffffffffffffffffffff169060200190919050506100f7565b604051808215151515815260200191505060405180910390f35b34156100ad57600080fd5b6100b56102b0565b604051808273ffffffffffffffffffffffffffffffffffffffff1673ffffffffffffffffffffffffffffffffffffffff16815260200191505060405180910390f35b60008060009054906101000a900473ffffffffffffffffffffffffffffffffffffffff1673ffffffffffffffffffffffffffffffffffffffff163373ffffffffffffffffffffffffffffffffffffffff1614151561015457600080fd5b6000809054906101000a900473ffffffffffffffffffffffffffffffffffffffff1673ffffffffffffffffffffffffffffffffffffffff168273ffffffffffffffffffffffffffffffffffffffff16141515156101b057600080fd5b600073ffffffffffffffffffffffffffffffffffffffff168273ffffffffffffffffffffffffffffffffffffffff16141515156101ec57600080fd5b8173ffffffffffffffffffffffffffffffffffffffff166000809054906101000a900473ffffffffffffffffffffffffffffffffffffffff1673ffffffffffffffffffffffffffffffffffffffff167fa1d2149652d81eb35c360c115fc7ac594124cb1ea8a5a33e9a7f5768c62869fb60405160405180910390a3816000806101000a81548173ffffffffffffffffffffffffffffffffffffffff021916908373ffffffffffffffffffffffffffffffffffffffff16021790555060019050919050565b60008060009054906101000a900473ffffffffffffffffffffffffffffffffffffffff169050905600a165627a7a72305820de8c102de800a0003e82cabc8a5c23c7af7f0a87a6285c0b8fc6dce00f1793ee0029",
  "source": "pragma solidity ^0.4.13;\n\nimport \"./interfaces/OwnedI.sol\";\n\ncontract Owned is OwnedI {\n    address myOwner;\n\n    modifier fromOwner {\n       require(msg.sender == myOwner);\n        _;\n    }\n\n    function Owned() {\n        myOwner = msg.sender;\n    }\n\n    /**\n     * Sets the new owner for this contract.\n     *     It should roll back if the caller is not the current owner.\n     *     It should roll back if the argument is the current owner.\n     *     It should roll back if the argument is a 0 address.\n     * @param newOwner The new owner of the contract\n     * @return Whether the action was successful.\n     * Emits LogOwnerSet.\n     */\n    function setOwner(address newOwner) \n        public fromOwner\n        returns(bool success)\n    {\n        require(newOwner != myOwner);\n        require(newOwner != address(0));\n \n        LogOwnerSet(myOwner, newOwner);\n\n        myOwner = newOwner;\n        success = true;\n    }\n\n    /**\n     * @return The owner of this contract.\n     */\n    function getOwner()\n        constant\n        returns (address owner)\n    {\n        owner = myOwner;\n    }\n\n    /*\n     * You need to create:\n     *\n     * - a contract named `Owned` that:\n     *     - is a `OwnedI`.\n     *     - has a modifier named `fromOwner` that rolls back the transaction if the\n     * transaction sender is not the owner.\n     *     - has a constructor that takes no parameter.\n     */\n}",
  "sourcePath": "/Users/halovast/DAPPS/contractFactory/exam-step-2/contracts/Owned.sol",
  "compiler": {
    "name": "solc",
    "version": "0.4.18+commit.9cf6e910.Emscripten.clang"
  },
  "schemaVersion": "1.0.1",
  "updatedAt": "2018-02-28T22:58:15.299Z"
}