{
  "contractName": "Pausable",
  "abi": [
    {
      "constant": false,
      "inputs": [
        {
          "name": "newOwner",
          "type": "address"
        }
      ],
      "name": "setOwner",
      "outputs": [
        {
          "name": "success",
          "type": "bool"
        }
      ],
      "payable": false,
      "stateMutability": "nonpayable",
      "type": "function"
    },
    {
      "constant": false,
      "inputs": [
        {
          "name": "newState",
          "type": "bool"
        }
      ],
      "name": "setPaused",
      "outputs": [
        {
          "name": "success",
          "type": "bool"
        }
      ],
      "payable": false,
      "stateMutability": "nonpayable",
      "type": "function"
    },
    {
      "constant": true,
      "inputs": [],
      "name": "getOwner",
      "outputs": [
        {
          "name": "owner",
          "type": "address"
        }
      ],
      "payable": false,
      "stateMutability": "view",
      "type": "function"
    },
    {
      "constant": true,
      "inputs": [],
      "name": "isPaused",
      "outputs": [
        {
          "name": "isIndeed",
          "type": "bool"
        }
      ],
      "payable": false,
      "stateMutability": "view",
      "type": "function"
    },
    {
      "inputs": [
        {
          "name": "initialState",
          "type": "bool"
        }
      ],
      "payable": false,
      "stateMutability": "nonpayable",
      "type": "constructor"
    },
    {
      "anonymous": false,
      "inputs": [
        {
          "indexed": true,
          "name": "sender",
          "type": "address"
        },
        {
          "indexed": true,
          "name": "newPausedState",
          "type": "bool"
        }
      ],
      "name": "LogPausedSet",
      "type": "event"
    },
    {
      "anonymous": false,
      "inputs": [
        {
          "indexed": true,
          "name": "previousOwner",
          "type": "address"
        },
        {
          "indexed": true,
          "name": "newOwner",
          "type": "address"
        }
      ],
      "name": "LogOwnerSet",
      "type": "event"
    }
  ],
  "bytecode": "0x6060604052341561000f57600080fd5b60405160208061051883398101604052808051906020019091905050336000806101000a81548173ffffffffffffffffffffffffffffffffffffffff021916908373ffffffffffffffffffffffffffffffffffffffff16021790555080600060146101000a81548160ff02191690831515021790555050610483806100956000396000f300606060405260043610610062576000357c0100000000000000000000000000000000000000000000000000000000900463ffffffff16806313af40351461006757806316c38b3c146100b8578063893d20e8146100f5578063b187bd261461014a575b600080fd5b341561007257600080fd5b61009e600480803573ffffffffffffffffffffffffffffffffffffffff16906020019091905050610177565b604051808215151515815260200191505060405180910390f35b34156100c357600080fd5b6100db60048080351515906020019091905050610330565b604051808215151515815260200191505060405180910390f35b341561010057600080fd5b610108610418565b604051808273ffffffffffffffffffffffffffffffffffffffff1673ffffffffffffffffffffffffffffffffffffffff16815260200191505060405180910390f35b341561015557600080fd5b61015d610441565b604051808215151515815260200191505060405180910390f35b60008060009054906101000a900473ffffffffffffffffffffffffffffffffffffffff1673ffffffffffffffffffffffffffffffffffffffff163373ffffffffffffffffffffffffffffffffffffffff161415156101d457600080fd5b6000809054906101000a900473ffffffffffffffffffffffffffffffffffffffff1673ffffffffffffffffffffffffffffffffffffffff168273ffffffffffffffffffffffffffffffffffffffff161415151561023057600080fd5b600073ffffffffffffffffffffffffffffffffffffffff168273ffffffffffffffffffffffffffffffffffffffff161415151561026c57600080fd5b8173ffffffffffffffffffffffffffffffffffffffff166000809054906101000a900473ffffffffffffffffffffffffffffffffffffffff1673ffffffffffffffffffffffffffffffffffffffff167fa1d2149652d81eb35c360c115fc7ac594124cb1ea8a5a33e9a7f5768c62869fb60405160405180910390a3816000806101000a81548173ffffffffffffffffffffffffffffffffffffffff021916908373ffffffffffffffffffffffffffffffffffffffff16021790555060019050919050565b60008060009054906101000a900473ffffffffffffffffffffffffffffffffffffffff1673ffffffffffffffffffffffffffffffffffffffff163373ffffffffffffffffffffffffffffffffffffffff1614151561038d57600080fd5b600060149054906101000a900460ff161515821515141515156103af57600080fd5b8115153373ffffffffffffffffffffffffffffffffffffffff167fae0f86d9801b0bd39a2ce25d9fd1f202f2fd22e80150be4a99adb0275a635d6c60405160405180910390a381600060146101000a81548160ff02191690831515021790555060019050919050565b60008060009054906101000a900473ffffffffffffffffffffffffffffffffffffffff16905090565b60008060149054906101000a900460ff169050905600a165627a7a72305820b1a6038b986478320885c3b851397238232f3bcbc1e7c20d2e5a0e48e909c4610029",
  "source": "pragma solidity ^0.4.13;\n\nimport \"./Owned.sol\";\nimport \"./interfaces/PausableI.sol\";\n\ncontract Pausable is Owned, PausableI {\n    bool private paused;\n\n    modifier whenPaused{\n        require(paused);\n        _;\n    }\n\n     modifier whenNotPaused{\n        require(!paused);\n        _;\n    }\n\n    function Pausable(bool initialState) {\n        paused = initialState;\n    }\n\n    /**\n     * Sets the new paused state for this contract.\n     *     It should roll back if the caller is not the current owner of this contract.\n     *     It should roll back if the state passed is no different from the current.\n     * @param newState The new desired \"paused\" state of the contract.\n     * @return Whether the action was successful.\n     * Emits LogPausedSet.\n     */\n    function setPaused(bool newState) \n        public fromOwner\n        returns(bool success)\n    {\n        require(newState != paused);\n\n        LogPausedSet(msg.sender, newState);\n\n        paused = newState;\n        success = true;\n    }\n\n    /**\n     * @return Whether the contract is indeed paused.\n     */\n    function isPaused() \n        constant\n        returns(bool isIndeed)\n    {\n        isIndeed = paused;\n    }\n\n    /*\n     * You need to create:\n     *\n     * - a contract named `Pausable` that:\n     *     - is a `OwnedI` and a `PausableI`.\n     *     - has a modifier named `whenPaused` that rolls back the transaction if the\n     * contract is in the `false` paused state.\n     *     - has a modifier named `whenNotPaused` that rolls back the transaction if the\n     * contract is in the `true` paused state.\n     *     - has a constructor that takes one `bool` parameter, the initial paused state.\n     */\n}",
  "sourcePath": "/Users/halovast/DAPPS/contractFactory/exam-step-2/contracts/Pausable.sol",
  "compiler": {
    "name": "solc",
    "version": "0.4.18+commit.9cf6e910.Emscripten.clang"
  },
  "schemaVersion": "1.0.1",
  "updatedAt": "2018-02-28T22:58:15.300Z"
}