{
  "contractName": "Regulator",
  "abi": [
    {
      "constant": true,
      "inputs": [
        {
          "name": "vehicle",
          "type": "address"
        }
      ],
      "name": "getVehicleType",
      "outputs": [
        {
          "name": "vehicleType",
          "type": "uint256"
        }
      ],
      "payable": false,
      "stateMutability": "view",
      "type": "function"
    },
    {
      "constant": false,
      "inputs": [
        {
          "name": "newOwner",
          "type": "address"
        }
      ],
      "name": "setOwner",
      "outputs": [
        {
          "name": "success",
          "type": "bool"
        }
      ],
      "payable": false,
      "stateMutability": "nonpayable",
      "type": "function"
    },
    {
      "constant": false,
      "inputs": [
        {
          "name": "vehicle",
          "type": "address"
        },
        {
          "name": "vehicleType",
          "type": "uint256"
        }
      ],
      "name": "setVehicleType",
      "outputs": [
        {
          "name": "success",
          "type": "bool"
        }
      ],
      "payable": false,
      "stateMutability": "nonpayable",
      "type": "function"
    },
    {
      "constant": true,
      "inputs": [
        {
          "name": "operator",
          "type": "address"
        }
      ],
      "name": "isOperator",
      "outputs": [
        {
          "name": "indeed",
          "type": "bool"
        }
      ],
      "payable": false,
      "stateMutability": "view",
      "type": "function"
    },
    {
      "constant": true,
      "inputs": [],
      "name": "getOwner",
      "outputs": [
        {
          "name": "owner",
          "type": "address"
        }
      ],
      "payable": false,
      "stateMutability": "view",
      "type": "function"
    },
    {
      "constant": false,
      "inputs": [
        {
          "name": "operator",
          "type": "address"
        }
      ],
      "name": "removeOperator",
      "outputs": [
        {
          "name": "success",
          "type": "bool"
        }
      ],
      "payable": false,
      "stateMutability": "nonpayable",
      "type": "function"
    },
    {
      "constant": false,
      "inputs": [
        {
          "name": "owner",
          "type": "address"
        },
        {
          "name": "deposit",
          "type": "uint256"
        }
      ],
      "name": "createNewOperator",
      "outputs": [
        {
          "name": "newOperator",
          "type": "address"
        }
      ],
      "payable": false,
      "stateMutability": "nonpayable",
      "type": "function"
    },
    {
      "anonymous": false,
      "inputs": [
        {
          "indexed": true,
          "name": "sender",
          "type": "address"
        },
        {
          "indexed": true,
          "name": "vehicle",
          "type": "address"
        },
        {
          "indexed": true,
          "name": "vehicleType",
          "type": "uint256"
        }
      ],
      "name": "LogVehicleTypeSet",
      "type": "event"
    },
    {
      "anonymous": false,
      "inputs": [
        {
          "indexed": true,
          "name": "sender",
          "type": "address"
        },
        {
          "indexed": true,
          "name": "newOperator",
          "type": "address"
        },
        {
          "indexed": true,
          "name": "owner",
          "type": "address"
        },
        {
          "indexed": false,
          "name": "depositWeis",
          "type": "uint256"
        }
      ],
      "name": "LogTollBoothOperatorCreated",
      "type": "event"
    },
    {
      "anonymous": false,
      "inputs": [
        {
          "indexed": true,
          "name": "sender",
          "type": "address"
        },
        {
          "indexed": true,
          "name": "operator",
          "type": "address"
        }
      ],
      "name": "LogTollBoothOperatorRemoved",
      "type": "event"
    },
    {
      "anonymous": false,
      "inputs": [
        {
          "indexed": true,
          "name": "previousOwner",
          "type": "address"
        },
        {
          "indexed": true,
          "name": "newOwner",
          "type": "address"
        }
      ],
      "name": "LogOwnerSet",
      "type": "event"
    }
  ],
  "bytecode": "0x6060604052336000806101000a81548173ffffffffffffffffffffffffffffffffffffffff021916908373ffffffffffffffffffffffffffffffffffffffff160217905550613817806100536000396000f300606060405260043610610083576000357c0100000000000000000000000000000000000000000000000000000000900463ffffffff1680630d2ce5221461008857806313af4035146100d5578063374bd9ed146101265780636d70f7ae14610180578063893d20e8146101d1578063ac8a584a14610226578063af91102314610277575b600080fd5b341561009357600080fd5b6100bf600480803573ffffffffffffffffffffffffffffffffffffffff169060200190919050506102f9565b6040518082815260200191505060405180910390f35b34156100e057600080fd5b61010c600480803573ffffffffffffffffffffffffffffffffffffffff16906020019091905050610342565b604051808215151515815260200191505060405180910390f35b341561013157600080fd5b610166600480803573ffffffffffffffffffffffffffffffffffffffff169060200190919080359060200190919050506104fb565b604051808215151515815260200191505060405180910390f35b341561018b57600080fd5b6101b7600480803573ffffffffffffffffffffffffffffffffffffffff1690602001909190505061068b565b604051808215151515815260200191505060405180910390f35b34156101dc57600080fd5b6101e46106e1565b604051808273ffffffffffffffffffffffffffffffffffffffff1673ffffffffffffffffffffffffffffffffffffffff16815260200191505060405180910390f35b341561023157600080fd5b61025d600480803573ffffffffffffffffffffffffffffffffffffffff1690602001909190505061070a565b604051808215151515815260200191505060405180910390f35b341561028257600080fd5b6102b7600480803573ffffffffffffffffffffffffffffffffffffffff1690602001909190803590602001909190505061087a565b604051808273ffffffffffffffffffffffffffffffffffffffff1673ffffffffffffffffffffffffffffffffffffffff16815260200191505060405180910390f35b6000600160008373ffffffffffffffffffffffffffffffffffffffff1673ffffffffffffffffffffffffffffffffffffffff168152602001908152602001600020549050919050565b60008060009054906101000a900473ffffffffffffffffffffffffffffffffffffffff1673ffffffffffffffffffffffffffffffffffffffff163373ffffffffffffffffffffffffffffffffffffffff1614151561039f57600080fd5b6000809054906101000a900473ffffffffffffffffffffffffffffffffffffffff1673ffffffffffffffffffffffffffffffffffffffff168273ffffffffffffffffffffffffffffffffffffffff16141515156103fb57600080fd5b600073ffffffffffffffffffffffffffffffffffffffff168273ffffffffffffffffffffffffffffffffffffffff161415151561043757600080fd5b8173ffffffffffffffffffffffffffffffffffffffff166000809054906101000a900473ffffffffffffffffffffffffffffffffffffffff1673ffffffffffffffffffffffffffffffffffffffff167fa1d2149652d81eb35c360c115fc7ac594124cb1ea8a5a33e9a7f5768c62869fb60405160405180910390a3816000806101000a81548173ffffffffffffffffffffffffffffffffffffffff021916908373ffffffffffffffffffffffffffffffffffffffff16021790555060019050919050565b60008060009054906101000a900473ffffffffffffffffffffffffffffffffffffffff1673ffffffffffffffffffffffffffffffffffffffff163373ffffffffffffffffffffffffffffffffffffffff1614151561055857600080fd5b81600160008573ffffffffffffffffffffffffffffffffffffffff1673ffffffffffffffffffffffffffffffffffffffff16815260200190815260200160002054141515156105a657600080fd5b600073ffffffffffffffffffffffffffffffffffffffff168373ffffffffffffffffffffffffffffffffffffffff16141515156105e257600080fd5b81600160008573ffffffffffffffffffffffffffffffffffffffff1673ffffffffffffffffffffffffffffffffffffffff1681526020019081526020016000208190555060019050818373ffffffffffffffffffffffffffffffffffffffff163373ffffffffffffffffffffffffffffffffffffffff167f9f2ee98048ade87cdf829a5e6f1089e5cc01f2afc787ff7e396df2d70e5216ce60405160405180910390a492915050565b6000600260008373ffffffffffffffffffffffffffffffffffffffff1673ffffffffffffffffffffffffffffffffffffffff16815260200190815260200160002060009054906101000a900460ff169050919050565b60008060009054906101000a900473ffffffffffffffffffffffffffffffffffffffff16905090565b60008060009054906101000a900473ffffffffffffffffffffffffffffffffffffffff1673ffffffffffffffffffffffffffffffffffffffff163373ffffffffffffffffffffffffffffffffffffffff1614151561076757600080fd5b600260008373ffffffffffffffffffffffffffffffffffffffff1673ffffffffffffffffffffffffffffffffffffffff16815260200190815260200160002060009054906101000a900460ff1615156107bf57600080fd5b6000600260008473ffffffffffffffffffffffffffffffffffffffff1673ffffffffffffffffffffffffffffffffffffffff16815260200190815260200160002060006101000a81548160ff021916908315150217905550600190508173ffffffffffffffffffffffffffffffffffffffff163373ffffffffffffffffffffffffffffffffffffffff167f7253d8f039804cf6934064766e2c63c6939d22caf79d2a54df904eb8b0ffa29560405160405180910390a3919050565b6000806000809054906101000a900473ffffffffffffffffffffffffffffffffffffffff1673ffffffffffffffffffffffffffffffffffffffff163373ffffffffffffffffffffffffffffffffffffffff161415156108d857600080fd5b6000809054906101000a900473ffffffffffffffffffffffffffffffffffffffff1673ffffffffffffffffffffffffffffffffffffffff168473ffffffffffffffffffffffffffffffffffffffff161415151561093457600080fd5b60018330610940610b71565b80841515151581526020018381526020018273ffffffffffffffffffffffffffffffffffffffff1673ffffffffffffffffffffffffffffffffffffffff1681526020019350505050604051809103906000f080151561099e57600080fd5b90508073ffffffffffffffffffffffffffffffffffffffff1660405180807f7365744f776e6572286164647265737329000000000000000000000000000000815250601101905060405180910390207c01000000000000000000000000000000000000000000000000000000009004856040518263ffffffff167c0100000000000000000000000000000000000000000000000000000000028152600401808273ffffffffffffffffffffffffffffffffffffffff1673ffffffffffffffffffffffffffffffffffffffff16815260200191505060006040518083038160008761646e5a03f1925050501515610a9357600080fd5b6001600260008373ffffffffffffffffffffffffffffffffffffffff1673ffffffffffffffffffffffffffffffffffffffff16815260200190815260200160002060006101000a81548160ff0219169083151502179055508091508373ffffffffffffffffffffffffffffffffffffffff168173ffffffffffffffffffffffffffffffffffffffff163373ffffffffffffffffffffffffffffffffffffffff167fae2fe91936c66c7f87615f93bd9630929b5778679dc04d2a466fed57108463a8866040518082815260200191505060405180910390a45092915050565b604051612c6a80610b82833901905600606060405234156200001057600080fd5b60405160608062002c6a83398101604052808051906020019091908051906020019091908051906020019091905050808284336000806101000a81548173ffffffffffffffffffffffffffffffffffffffff021916908373ffffffffffffffffffffffffffffffffffffffff16021790555080600060146101000a81548160ff0219169083151502179055505060008114151515620000ae57600080fd5b8060018190555050600073ffffffffffffffffffffffffffffffffffffffff168173ffffffffffffffffffffffffffffffffffffffff1614151515620000f357600080fd5b80600560006101000a81548173ffffffffffffffffffffffffffffffffffffffff021916908373ffffffffffffffffffffffffffffffffffffffff16021790555050600082141515156200014657600080fd5b600073ffffffffffffffffffffffffffffffffffffffff168173ffffffffffffffffffffffffffffffffffffffff16141515156200018357600080fd5b505050612ad480620001966000396000f300606060405260043610610133576000357c0100000000000000000000000000000000000000000000000000000000900463ffffffff1680630bbbcbb21461014357806313af40351461019457806316c38b3c146101e5578063226dfb42146102225780632c333eab1461029b578063333271d0146102ec57806339a874861461033057806350295c671461036b57806350bb553a146103d7578063552c1e55146104285780637527b1ca1461046b578063893d20e81461050c578063954d4add1461056157806399763af6146105b4578063adf8252d146105dd578063b187bd2614610614578063c399ec8814610641578063cb3c4cbc1461066a578063cde0a4f8146106d6578063dd47050f14610727578063e23d7c5b14610754578063f5bade66146107cd578063f7e317f414610808575b341561013e57600080fd5b600080fd5b341561014e57600080fd5b61017a600480803573ffffffffffffffffffffffffffffffffffffffff1690602001909190505061085d565b604051808215151515815260200191505060405180910390f35b341561019f57600080fd5b6101cb600480803573ffffffffffffffffffffffffffffffffffffffff16906020019091905050610a09565b604051808215151515815260200191505060405180910390f35b34156101f057600080fd5b61020860048080351515906020019091905050610bc2565b604051808215151515815260200191505060405180910390f35b341561022d57600080fd5b610281600480803573ffffffffffffffffffffffffffffffffffffffff1690602001909190803573ffffffffffffffffffffffffffffffffffffffff16906020019091908035906020019091905050610caa565b604051808215151515815260200191505060405180910390f35b34156102a657600080fd5b6102d2600480803573ffffffffffffffffffffffffffffffffffffffff16906020019091905050611136565b604051808215151515815260200191505060405180910390f35b34156102f757600080fd5b61031660048080359060200190919080359060200190919050506112e3565b604051808215151515815260200191505060405180910390f35b341561033b57600080fd5b6103556004808035600019169060200190919050506113e3565b6040518082815260200191505060405180910390f35b341561037657600080fd5b6103c1600480803573ffffffffffffffffffffffffffffffffffffffff1690602001909190803573ffffffffffffffffffffffffffffffffffffffff169060200190919050506118f6565b6040518082815260200191505060405180910390f35b34156103e257600080fd5b61040e600480803573ffffffffffffffffffffffffffffffffffffffff169060200190919050506119b4565b604051808215151515815260200191505060405180910390f35b341561043357600080fd5b61044d600480803560001916906020019091905050611a0a565b60405180826000191660001916815260200191505060405180910390f35b341561047657600080fd5b610490600480803560001916906020019091905050611a31565b604051808473ffffffffffffffffffffffffffffffffffffffff1673ffffffffffffffffffffffffffffffffffffffff1681526020018373ffffffffffffffffffffffffffffffffffffffff1673ffffffffffffffffffffffffffffffffffffffff168152602001828152602001935050505060405180910390f35b341561051757600080fd5b61051f611ae0565b604051808273ffffffffffffffffffffffffffffffffffffffff1673ffffffffffffffffffffffffffffffffffffffff16815260200191505060405180910390f35b61059a600480803573ffffffffffffffffffffffffffffffffffffffff1690602001909190803560001916906020019091905050611b09565b604051808215151515815260200191505060405180910390f35b34156105bf57600080fd5b6105c7611e44565b6040518082815260200191505060405180910390f35b34156105e857600080fd5b6105fe6004808035906020019091905050611e4e565b6040518082815260200191505060405180910390f35b341561061f57600080fd5b610627611e6b565b604051808215151515815260200191505060405180910390f35b341561064c57600080fd5b610654611e81565b6040518082815260200191505060405180910390f35b341561067557600080fd5b6106c0600480803573ffffffffffffffffffffffffffffffffffffffff1690602001909190803573ffffffffffffffffffffffffffffffffffffffff16906020019091905050611e8b565b6040518082815260200191505060405180910390f35b34156106e157600080fd5b61070d600480803573ffffffffffffffffffffffffffffffffffffffff16906020019091905050611f49565b604051808215151515815260200191505060405180910390f35b341561073257600080fd5b61073a612106565b604051808215151515815260200191505060405180910390f35b341561075f57600080fd5b6107b3600480803573ffffffffffffffffffffffffffffffffffffffff1690602001909190803573ffffffffffffffffffffffffffffffffffffffff16906020019091908035906020019091905050612218565b604051808215151515815260200191505060405180910390f35b34156107d857600080fd5b6107ee600480803590602001909190505061262e565b604051808215151515815260200191505060405180910390f35b341561081357600080fd5b61081b61270a565b604051808273ffffffffffffffffffffffffffffffffffffffff1673ffffffffffffffffffffffffffffffffffffffff16815260200191505060405180910390f35b60008060009054906101000a900473ffffffffffffffffffffffffffffffffffffffff1673ffffffffffffffffffffffffffffffffffffffff163373ffffffffffffffffffffffffffffffffffffffff161415156108ba57600080fd5b600360008373ffffffffffffffffffffffffffffffffffffffff1673ffffffffffffffffffffffffffffffffffffffff16815260200190815260200160002060009054906101000a900460ff16151561091257600080fd5b600073ffffffffffffffffffffffffffffffffffffffff168273ffffffffffffffffffffffffffffffffffffffff161415151561094e57600080fd5b6000600360008473ffffffffffffffffffffffffffffffffffffffff1673ffffffffffffffffffffffffffffffffffffffff16815260200190815260200160002060006101000a81548160ff021916908315150217905550600190508173ffffffffffffffffffffffffffffffffffffffff163373ffffffffffffffffffffffffffffffffffffffff167f5b34220b1e6888774f5c1badf295633d5d8d4ae02d5e3019e422b3debfe8967860405160405180910390a3919050565b60008060009054906101000a900473ffffffffffffffffffffffffffffffffffffffff1673ffffffffffffffffffffffffffffffffffffffff163373ffffffffffffffffffffffffffffffffffffffff16141515610a6657600080fd5b6000809054906101000a900473ffffffffffffffffffffffffffffffffffffffff1673ffffffffffffffffffffffffffffffffffffffff168273ffffffffffffffffffffffffffffffffffffffff1614151515610ac257600080fd5b600073ffffffffffffffffffffffffffffffffffffffff168273ffffffffffffffffffffffffffffffffffffffff1614151515610afe57600080fd5b8173ffffffffffffffffffffffffffffffffffffffff166000809054906101000a900473ffffffffffffffffffffffffffffffffffffffff1673ffffffffffffffffffffffffffffffffffffffff167fa1d2149652d81eb35c360c115fc7ac594124cb1ea8a5a33e9a7f5768c62869fb60405160405180910390a3816000806101000a81548173ffffffffffffffffffffffffffffffffffffffff021916908373ffffffffffffffffffffffffffffffffffffffff16021790555060019050919050565b60008060009054906101000a900473ffffffffffffffffffffffffffffffffffffffff1673ffffffffffffffffffffffffffffffffffffffff163373ffffffffffffffffffffffffffffffffffffffff16141515610c1f57600080fd5b600060149054906101000a900460ff16151582151514151515610c4157600080fd5b8115153373ffffffffffffffffffffffffffffffffffffffff167fae0f86d9801b0bd39a2ce25d9fd1f202f2fd22e80150be4a99adb0275a635d6c60405160405180910390a381600060146101000a81548160ff02191690831515021790555060019050919050565b600080600080600080600080600080600080600060149054906101000a900460ff16151515610cd857600080fd5b610ce18f6119b4565b8015610cf25750610cf18e6119b4565b5b1515610cfd57600080fd5b60008d111515610d0c57600080fd5b8e8e604051808373ffffffffffffffffffffffffffffffffffffffff1673ffffffffffffffffffffffffffffffffffffffff166c010000000000000000000000000281526014018273ffffffffffffffffffffffffffffffffffffffff1673ffffffffffffffffffffffffffffffffffffffff166c010000000000000000000000000281526014019250505060405180910390209a508c600760008d600019166000191681526020019081526020016000205410151515610dcc57600080fd5b610dd68f8f6118f6565b995060009850600197505b8c8811158015610e0e5750600860008c600019166000191681526020019081526020016000208054905089105b1561112057600860008c6000191660001916815260200190815260200160002089815481101515610e3b57fe5b906000526020600020900154965060066000886000191660001916815260200190815260200160002060020154955060008614151561110157600560009054906101000a900473ffffffffffffffffffffffffffffffffffffffff1694508473ffffffffffffffffffffffffffffffffffffffff16630d2ce522600660008a6000191660001916815260200190815260200160002060000160009054906101000a900473ffffffffffffffffffffffffffffffffffffffff166000604051602001526040518263ffffffff167c0100000000000000000000000000000000000000000000000000000000028152600401808273ffffffffffffffffffffffffffffffffffffffff1673ffffffffffffffffffffffffffffffffffffffff168152602001915050602060405180830381600087803b1515610f7a57600080fd5b6102c65a03f11515610f8b57600080fd5b505050604051805190509350610fa084611e4e565b9250828a0291506000600660008960001916600019168152602001908152602001600020600201819055506001600760008d60001916600019168152602001908152602001600020600082825403925050819055508582101561108557818603905060066000886000191660001916815260200190815260200160002060000160009054906101000a900473ffffffffffffffffffffffffffffffffffffffff1673ffffffffffffffffffffffffffffffffffffffff166108fc829081150290604051600060405180830381858888f19350505050151561108057600080fd5b611089565b8591505b81600960008282540192505081905550888060010199505086600019168e73ffffffffffffffffffffffffffffffffffffffff167fcc28c1c2c2269c01d739ef1a54d12784fe3052b2f228668ba5f4bc862ebe51bc8484604051808381526020018281526020019250505060405180910390a3611113565b87806001900398505088806001019950505b8780600101985050610de1565b60019b5050505050505050505050509392505050565b60008060009054906101000a900473ffffffffffffffffffffffffffffffffffffffff1673ffffffffffffffffffffffffffffffffffffffff163373ffffffffffffffffffffffffffffffffffffffff1614151561119357600080fd5b600360008373ffffffffffffffffffffffffffffffffffffffff1673ffffffffffffffffffffffffffffffffffffffff16815260200190815260200160002060009054906101000a900460ff161515156111ec57600080fd5b600073ffffffffffffffffffffffffffffffffffffffff168273ffffffffffffffffffffffffffffffffffffffff161415151561122857600080fd5b6001600360008473ffffffffffffffffffffffffffffffffffffffff1673ffffffffffffffffffffffffffffffffffffffff16815260200190815260200160002060006101000a81548160ff021916908315150217905550600190508173ffffffffffffffffffffffffffffffffffffffff163373ffffffffffffffffffffffffffffffffffffffff167fe8f587f6ae5ef5f7560b94b9369dd242c9de0588c328add1a785044abf837c6d60405160405180910390a3919050565b60008060009054906101000a900473ffffffffffffffffffffffffffffffffffffffff1673ffffffffffffffffffffffffffffffffffffffff163373ffffffffffffffffffffffffffffffffffffffff1614151561134057600080fd5b6000831415151561135057600080fd5b8160026000858152602001908152602001600020541415151561137257600080fd5b816002600085815260200190815260200160002081905550823373ffffffffffffffffffffffffffffffffffffffff167f5e168e70d5925560e1407b68dc2495afbc25b36217cc6e4167b2cf3f28a46ef1846040518082815260200191505060405180910390a36001905092915050565b60008060008060008060008060008060008060149054906101000a900460ff1615151561140f57600080fd5b6114188c611a0a565b9950600660008b6000191660001916815260200190815260200160002060010160009054906101000a900473ffffffffffffffffffffffffffffffffffffffff169850611464336119b4565b151561146f57600080fd5b8873ffffffffffffffffffffffffffffffffffffffff163373ffffffffffffffffffffffffffffffffffffffff16141515156114aa57600080fd5b600073ffffffffffffffffffffffffffffffffffffffff168973ffffffffffffffffffffffffffffffffffffffff16141515156114e657600080fd5b600560009054906101000a900473ffffffffffffffffffffffffffffffffffffffff16975061151589336118f6565b96508773ffffffffffffffffffffffffffffffffffffffff16630d2ce522600660008d6000191660001916815260200190815260200160002060000160009054906101000a900473ffffffffffffffffffffffffffffffffffffffff166000604051602001526040518263ffffffff167c0100000000000000000000000000000000000000000000000000000000028152600401808273ffffffffffffffffffffffffffffffffffffffff1673ffffffffffffffffffffffffffffffffffffffff168152602001915050602060405180830381600087803b15156115f857600080fd5b6102c65a03f1151561160957600080fd5b50505060405180519050955061161e86611e4e565b94508487029350600084141561179e578833604051808373ffffffffffffffffffffffffffffffffffffffff1673ffffffffffffffffffffffffffffffffffffffff166c010000000000000000000000000281526014018273ffffffffffffffffffffffffffffffffffffffff1673ffffffffffffffffffffffffffffffffffffffff166c010000000000000000000000000281526014019250505060405180910390209250600160076000856000191660001916815260200190815260200160002060008282540192505081905550600860008460001916600019168152602001908152602001600020805480600101828161171b9190612a57565b916000526020600020900160008c9091909150906000191690555060029a503373ffffffffffffffffffffffffffffffffffffffff168973ffffffffffffffffffffffffffffffffffffffff168b600019167f739c4108960ded7f9e5e6790da2d3baebfb37959560441b5787b8c70676d873c60405160405180910390a46118e7565b60019a50600660008b600019166000191681526020019081526020016000206002015490506000600660008c600019166000191681526020019081526020016000206002018190555080841015611877578381039150600660008b6000191660001916815260200190815260200160002060000160009054906101000a900473ffffffffffffffffffffffffffffffffffffffff1673ffffffffffffffffffffffffffffffffffffffff166108fc839081150290604051600060405180830381858888f19350505050151561187257600080fd5b61187b565b8093505b8360096000828254019250508190555089600019163373ffffffffffffffffffffffffffffffffffffffff167fcc28c1c2c2269c01d739ef1a54d12784fe3052b2f228668ba5f4bc862ebe51bc8685604051808381526020018281526020019250505060405180910390a35b50505050505050505050919050565b6000808383604051808373ffffffffffffffffffffffffffffffffffffffff1673ffffffffffffffffffffffffffffffffffffffff166c010000000000000000000000000281526014018273ffffffffffffffffffffffffffffffffffffffff1673ffffffffffffffffffffffffffffffffffffffff166c0100000000000000000000000002815260140192505050604051809103902090506004600082600019166000191681526020019081526020016000205491505092915050565b6000600360008373ffffffffffffffffffffffffffffffffffffffff1673ffffffffffffffffffffffffffffffffffffffff16815260200190815260200160002060009054906101000a900460ff169050919050565b60008160405180826000191660001916815260200191505060405180910390209050919050565b600080600060066000856000191660001916815260200190815260200160002060000160009054906101000a900473ffffffffffffffffffffffffffffffffffffffff16925060066000856000191660001916815260200190815260200160002060010160009054906101000a900473ffffffffffffffffffffffffffffffffffffffff1691506006600085600019166000191681526020019081526020016000206002015490509193909250565b60008060009054906101000a900473ffffffffffffffffffffffffffffffffffffffff16905090565b60008060008060008060149054906101000a900460ff16151515611b2c57600080fd5b611b35876119b4565b1515611b4057600080fd5b600560009054906101000a900473ffffffffffffffffffffffffffffffffffffffff1693508373ffffffffffffffffffffffffffffffffffffffff16630d2ce522336000604051602001526040518263ffffffff167c0100000000000000000000000000000000000000000000000000000000028152600401808273ffffffffffffffffffffffffffffffffffffffff1673ffffffffffffffffffffffffffffffffffffffff168152602001915050602060405180830381600087803b1515611c0857600080fd5b6102c65a03f11515611c1957600080fd5b505050604051805190509250611c2e83611e4e565b9150611c38611e81565b905060008314151515611c4a57600080fd5b60008214151515611c5a57600080fd5b8181023410151515611c6b57600080fd5b600060066000886000191660001916815260200190815260200160002060010160009054906101000a900473ffffffffffffffffffffffffffffffffffffffff1673ffffffffffffffffffffffffffffffffffffffff16141515611cce57600080fd5b6060604051908101604052803373ffffffffffffffffffffffffffffffffffffffff1681526020018873ffffffffffffffffffffffffffffffffffffffff1681526020013481525060066000886000191660001916815260200190815260200160002060008201518160000160006101000a81548173ffffffffffffffffffffffffffffffffffffffff021916908373ffffffffffffffffffffffffffffffffffffffff16021790555060208201518160010160006101000a81548173ffffffffffffffffffffffffffffffffffffffff021916908373ffffffffffffffffffffffffffffffffffffffff160217905550604082015181600201559050506001945085600019168773ffffffffffffffffffffffffffffffffffffffff163373ffffffffffffffffffffffffffffffffffffffff167f26213b556e4ae8dd63f1f81f4ea6181803d9a3efcad477cd84dcae45a264c30b346040518082815260200191505060405180910390a45050505092915050565b6000600954905090565b600060026000838152602001908152602001600020549050919050565b60008060149054906101000a900460ff16905090565b6000600154905090565b6000808383604051808373ffffffffffffffffffffffffffffffffffffffff1673ffffffffffffffffffffffffffffffffffffffff166c010000000000000000000000000281526014018273ffffffffffffffffffffffffffffffffffffffff1673ffffffffffffffffffffffffffffffffffffffff166c0100000000000000000000000002815260140192505050604051809103902090506007600082600019166000191681526020019081526020016000205491505092915050565b6000600560009054906101000a900473ffffffffffffffffffffffffffffffffffffffff1673ffffffffffffffffffffffffffffffffffffffff163373ffffffffffffffffffffffffffffffffffffffff16141515611fa757600080fd5b600073ffffffffffffffffffffffffffffffffffffffff168273ffffffffffffffffffffffffffffffffffffffff1614151515611fe357600080fd5b600560009054906101000a900473ffffffffffffffffffffffffffffffffffffffff1673ffffffffffffffffffffffffffffffffffffffff168273ffffffffffffffffffffffffffffffffffffffff161415151561204057600080fd5b8173ffffffffffffffffffffffffffffffffffffffff16600560009054906101000a900473ffffffffffffffffffffffffffffffffffffffff1673ffffffffffffffffffffffffffffffffffffffff167fa32c4b1f26f0d877f643f7fb9db131f9cebf04d120fe5ada74c0bdfc808dab8360405160405180910390a381600560006101000a81548173ffffffffffffffffffffffffffffffffffffffff021916908373ffffffffffffffffffffffffffffffffffffffff16021790555060019050919050565b6000806000809054906101000a900473ffffffffffffffffffffffffffffffffffffffff1673ffffffffffffffffffffffffffffffffffffffff163373ffffffffffffffffffffffffffffffffffffffff1614151561216457600080fd5b600060095411151561217557600080fd5b60095490503373ffffffffffffffffffffffffffffffffffffffff167f851c9440e522074225f247c12030d8a38be67fbda82238aac95d4a4454647f9d826040518082815260200191505060405180910390a260006009819055503373ffffffffffffffffffffffffffffffffffffffff166108fc829081150290604051600060405180830381858888f19350505050151561221057600080fd5b600191505090565b60008060008060008060008060008060006122348e8e8e612734565b1561261d578d8d604051808373ffffffffffffffffffffffffffffffffffffffff1673ffffffffffffffffffffffffffffffffffffffff166c010000000000000000000000000281526014018273ffffffffffffffffffffffffffffffffffffffff1673ffffffffffffffffffffffffffffffffffffffff166c01000000000000000000000000028152601401925050506040518091039020995060009850600197505b600188111580156123065750600860008b600019166000191681526020019081526020016000208054905089105b1561261857600860008b600019166000191681526020019081526020016000208981548110151561233357fe5b90600052602060002090015496506006600088600019166000191681526020019081526020016000206002015495506000861415156125f957600560009054906101000a900473ffffffffffffffffffffffffffffffffffffffff1694508473ffffffffffffffffffffffffffffffffffffffff16630d2ce522600660008a6000191660001916815260200190815260200160002060000160009054906101000a900473ffffffffffffffffffffffffffffffffffffffff166000604051602001526040518263ffffffff167c0100000000000000000000000000000000000000000000000000000000028152600401808273ffffffffffffffffffffffffffffffffffffffff1673ffffffffffffffffffffffffffffffffffffffff168152602001915050602060405180830381600087803b151561247257600080fd5b6102c65a03f1151561248357600080fd5b50505060405180519050935061249884611e4e565b9250828c0291506000600660008960001916600019168152602001908152602001600020600201819055506001600760008c60001916600019168152602001908152602001600020600082825403925050819055508582101561257d57818603905060066000886000191660001916815260200190815260200160002060000160009054906101000a900473ffffffffffffffffffffffffffffffffffffffff1673ffffffffffffffffffffffffffffffffffffffff166108fc829081150290604051600060405180830381858888f19350505050151561257857600080fd5b612581565b8591505b81600960008282540192505081905550888060010199505086600019168d73ffffffffffffffffffffffffffffffffffffffff167fcc28c1c2c2269c01d739ef1a54d12784fe3052b2f228668ba5f4bc862ebe51bc8484604051808381526020018281526020019250505060405180910390a361260b565b87806001900398505088806001019950505b87806001019850506122d8565b60019a505b505050505050505050509392505050565b60008060009054906101000a900473ffffffffffffffffffffffffffffffffffffffff1673ffffffffffffffffffffffffffffffffffffffff163373ffffffffffffffffffffffffffffffffffffffff1614151561268b57600080fd5b6000821415151561269b57600080fd5b60015482141515156126ac57600080fd5b81600181905550600190503373ffffffffffffffffffffffffffffffffffffffff167ffa53ebd539f52eb4ef352ffacb2f8f5f8080cd8bb7ebb2f1acab3e1ce4bd65cb836040518082815260200191505060405180910390a2919050565b6000600560009054906101000a900473ffffffffffffffffffffffffffffffffffffffff16905090565b6000806000809054906101000a900473ffffffffffffffffffffffffffffffffffffffff1673ffffffffffffffffffffffffffffffffffffffff163373ffffffffffffffffffffffffffffffffffffffff1614151561279257600080fd5b600360008673ffffffffffffffffffffffffffffffffffffffff1673ffffffffffffffffffffffffffffffffffffffff16815260200190815260200160002060009054906101000a900460ff1680156128345750600360008573ffffffffffffffffffffffffffffffffffffffff1673ffffffffffffffffffffffffffffffffffffffff16815260200190815260200160002060009054906101000a900460ff165b151561283f57600080fd5b8373ffffffffffffffffffffffffffffffffffffffff168573ffffffffffffffffffffffffffffffffffffffff161415151561287a57600080fd5b600073ffffffffffffffffffffffffffffffffffffffff168573ffffffffffffffffffffffffffffffffffffffff16141580156128e45750600073ffffffffffffffffffffffffffffffffffffffff168473ffffffffffffffffffffffffffffffffffffffff1614155b15156128ef57600080fd5b8484604051808373ffffffffffffffffffffffffffffffffffffffff1673ffffffffffffffffffffffffffffffffffffffff166c010000000000000000000000000281526014018273ffffffffffffffffffffffffffffffffffffffff1673ffffffffffffffffffffffffffffffffffffffff166c0100000000000000000000000002815260140192505050604051809103902090508260046000836000191660001916815260200190815260200160002054141515156129af57600080fd5b8260046000836000191660001916815260200190815260200160002081905550600191508373ffffffffffffffffffffffffffffffffffffffff168573ffffffffffffffffffffffffffffffffffffffff163373ffffffffffffffffffffffffffffffffffffffff167f5b631b37e5dfb698eace7497bcae58e93fac69e007127739fc79109d99c58332866040518082815260200191505060405180910390a4509392505050565b815481835581811511612a7e57818360005260206000209182019101612a7d9190612a83565b5b505050565b612aa591905b80821115612aa1576000816000905550600101612a89565b5090565b905600a165627a7a723058209a585869b6b9f0aab0c198411cf9a2025f3cc3ea9bbb80114ac6258f6af43be70029a165627a7a723058207a2dd4804f527316990096c7fc12b9935bc3a2407ae793f458c46550ecdeab6f0029",
  "source": "pragma solidity ^0.4.13;\n\nimport \"./TollBoothOperator.sol\";\nimport \"./Owned.sol\";\nimport \"./interfaces/RegulatorI.sol\";\n\ncontract Regulator is Owned, RegulatorI {\n    mapping(address=>uint) vehicleRegister;\n    mapping(address=>bool) approvedOperators;\n\t\n    /**\n     * Called by the owner of the regulator to register a new vehicle with its VehicleType.\n     *     It should roll back if the caller is not the owner of the contract.\n     *     It should roll back if the arguments mean no change of state.\n     *     It should roll back if a 0x vehicle address is passed.\n     * @param vehicle The address of the vehicle being registered. This may be an externally\n     *   owned account or a contract. The regulator does not care.\n     * @param vehicleType The VehicleType of the vehicle being registered.\n     *    passing 0 is equivalent to unregistering the vehicle.\n     * @return Whether the action was successful.\n     * Emits LogVehicleTypeSet\n     */\n    function setVehicleType(address vehicle, uint vehicleType)\n        public fromOwner\n        returns(bool success)\n    {\n        require(vehicleRegister[vehicle] != vehicleType);\n        require(vehicle != address(0));\n\n        vehicleRegister[vehicle] = vehicleType;\n\n        success = true;\n\n        LogVehicleTypeSet(msg.sender, vehicle, vehicleType);\n    }\n\n    /**\n     * @param vehicle The address of the registered vehicle.\n     * @return The VehicleType of the vehicle whose address was passed. 0 means it is not\n     *   a registered vehicle.\n     */\n    function getVehicleType(address vehicle)\n        constant\n        public\n        returns(uint vehicleType)\n    {\n        vehicleType = vehicleRegister[vehicle];\n    }\n\n    /**\n     * Called by the owner of the regulator to deploy a new TollBoothOperator onto the network.\n     *     It should roll back if the caller is not the owner of the contract.\n     *     It should start the TollBoothOperator in the `true` paused state.\n     *     It should roll back if the rightful owner argument is the current owner of the regulator.\n     * @param owner The rightful owner of the newly deployed TollBoothOperator.\n     * @param deposit The initial value of the TollBoothOperator deposit.\n     * @return The address of the newly deployed TollBoothOperator.\n     * Emits LogTollBoothOperatorCreated.\n     */\n    function createNewOperator(\n            address owner,\n            uint deposit)\n        public fromOwner\n        returns(TollBoothOperatorI newOperator)\n    {\n        require(owner != myOwner);\n\n        TollBoothOperatorI newTollBoothOperator = new TollBoothOperator(true, deposit, this);\n        require(newTollBoothOperator.call(bytes4(keccak256(\"setOwner(address)\")), owner));\n\t\tapprovedOperators[newTollBoothOperator] = true;\n\n        newOperator = newTollBoothOperator;\n        LogTollBoothOperatorCreated(msg.sender, newTollBoothOperator, owner, deposit);\n    }\n\n    /**\n     * Called by the owner of the regulator to remove a previously deployed TollBoothOperator from\n     * the list of approved operators.\n     *     It should roll back if the caller is not the owner of the contract.\n     *     It should roll back if the operator is unknown.\n     * @param operator The address of the contract to remove.\n     * @return Whether the action was successful.\n     * Emits LogTollBoothOperatorRemoved.\n     */\n    function removeOperator(address operator)\n        public fromOwner\n        returns(bool success)\n    {\n        require(approvedOperators[operator]);\n\n        approvedOperators[operator] = false;\n\n        success = true;\n        LogTollBoothOperatorRemoved(msg.sender, operator);\n    }\n\n    /**\n     * @param operator The address of the TollBoothOperator to test.\n     * @return Whether the TollBoothOperator is indeed approved.\n     */\n    function isOperator(address operator)\n        constant\n        public\n        returns(bool indeed)\n    {\n        indeed = approvedOperators[operator];\n    }\n\n    /*\n     * You need to create:\n     *\n     * - a contract named `Regulator` that:\n     *     - is `OwnedI` and `RegulatorI`.\n     *     - has a constructor that takes no parameter.\n     */        \n}",
  "sourcePath": "/Users/halovast/DAPPS/contractFactory/exam-step-2/contracts/Regulator.sol",
  "compiler": {
    "name": "solc",
    "version": "0.4.18+commit.9cf6e910.Emscripten.clang"
  },
  "schemaVersion": "1.0.1",
  "updatedAt": "2018-02-28T22:58:16.230Z"
}