{
  "contractName": "Regulated",
  "abi": [
    {
      "constant": false,
      "inputs": [
        {
          "name": "newRegulator",
          "type": "address"
        }
      ],
      "name": "setRegulator",
      "outputs": [
        {
          "name": "success",
          "type": "bool"
        }
      ],
      "payable": false,
      "stateMutability": "nonpayable",
      "type": "function"
    },
    {
      "constant": true,
      "inputs": [],
      "name": "getRegulator",
      "outputs": [
        {
          "name": "regulator",
          "type": "address"
        }
      ],
      "payable": false,
      "stateMutability": "view",
      "type": "function"
    },
    {
      "inputs": [
        {
          "name": "_regulator",
          "type": "address"
        }
      ],
      "payable": false,
      "stateMutability": "nonpayable",
      "type": "constructor"
    },
    {
      "anonymous": false,
      "inputs": [
        {
          "indexed": true,
          "name": "previousRegulator",
          "type": "address"
        },
        {
          "indexed": true,
          "name": "newRegulator",
          "type": "address"
        }
      ],
      "name": "LogRegulatorSet",
      "type": "event"
    }
  ],
  "bytecode": "0x6060604052341561000f57600080fd5b6040516020806103bc83398101604052808051906020019091905050600073ffffffffffffffffffffffffffffffffffffffff168173ffffffffffffffffffffffffffffffffffffffff161415151561006757600080fd5b806000806101000a81548173ffffffffffffffffffffffffffffffffffffffff021916908373ffffffffffffffffffffffffffffffffffffffff16021790555050610305806100b76000396000f30060606040526004361061004c576000357c0100000000000000000000000000000000000000000000000000000000900463ffffffff168063cde0a4f814610051578063f7e317f4146100a2575b600080fd5b341561005c57600080fd5b610088600480803573ffffffffffffffffffffffffffffffffffffffff169060200190919050506100f7565b604051808215151515815260200191505060405180910390f35b34156100ad57600080fd5b6100b56102b0565b604051808273ffffffffffffffffffffffffffffffffffffffff1673ffffffffffffffffffffffffffffffffffffffff16815260200191505060405180910390f35b60008060009054906101000a900473ffffffffffffffffffffffffffffffffffffffff1673ffffffffffffffffffffffffffffffffffffffff163373ffffffffffffffffffffffffffffffffffffffff1614151561015457600080fd5b600073ffffffffffffffffffffffffffffffffffffffff168273ffffffffffffffffffffffffffffffffffffffff161415151561019057600080fd5b6000809054906101000a900473ffffffffffffffffffffffffffffffffffffffff1673ffffffffffffffffffffffffffffffffffffffff168273ffffffffffffffffffffffffffffffffffffffff16141515156101ec57600080fd5b8173ffffffffffffffffffffffffffffffffffffffff166000809054906101000a900473ffffffffffffffffffffffffffffffffffffffff1673ffffffffffffffffffffffffffffffffffffffff167fa32c4b1f26f0d877f643f7fb9db131f9cebf04d120fe5ada74c0bdfc808dab8360405160405180910390a3816000806101000a81548173ffffffffffffffffffffffffffffffffffffffff021916908373ffffffffffffffffffffffffffffffffffffffff16021790555060019050919050565b60008060009054906101000a900473ffffffffffffffffffffffffffffffffffffffff169050905600a165627a7a7230582053f1f18a3b0ff95c3bf2c65deeb916f0117b7a5790c116ded51caa439e6217780029",
  "source": "pragma solidity ^0.4.13;\n\nimport \"./interfaces/RegulatedI.sol\";\n\ncontract Regulated is RegulatedI {\n    address internal myRegulator;\n\n    function Regulated(address _regulator) {\n        require(_regulator != address(0));\n\n        myRegulator = _regulator;\n    }\n\n    /**\n     * Sets the new regulator for this contract.\n     *     It should roll back if any address other than the current regulator of this contract\n     *       calls this function.\n     *     It should roll back if the new regulator address is 0.\n     *     It should roll back if the new regulator is the same as the current regulator.\n     * @param newRegulator The new desired regulator of the contract.\n     * @return Whether the action was successful.\n     * Emits LogRegulatorSet.\n     */\n    function setRegulator(address newRegulator)\n        public\n        returns(bool success)\n    {\n        require(msg.sender == myRegulator);\n        require(newRegulator != address(0));\n        require(newRegulator != myRegulator);\n\n        LogRegulatorSet(myRegulator, newRegulator);\n\n        myRegulator = newRegulator;\n\n        success = true;\n    }\n\n    /**\n     * @return The current regulator.\n     */\n    function getRegulator()\n        constant\n        public\n        returns(RegulatorI regulator)\n    {\n        regulator = RegulatorI(myRegulator);\n    }\n\n    /*\n     * You need to create:\n     *\n     * - a contract named `Regulated` that:\n     *     - is a `RegulatedI`.\n     *     - has a constructor that takes one `address` parameter, the initial regulator, which cannot be 0.\n     */\n}",
  "sourcePath": "/Users/halovast/DAPPS/contractFactory/exam-step-2/contracts/Regulated.sol",
  "compiler": {
    "name": "solc",
    "version": "0.4.18+commit.9cf6e910.Emscripten.clang"
  },
  "schemaVersion": "1.0.1",
  "updatedAt": "2018-02-28T22:58:15.300Z"
}