{
  "contractName": "TollBoothHolder",
  "abi": [
    {
      "constant": false,
      "inputs": [
        {
          "name": "tollBooth",
          "type": "address"
        }
      ],
      "name": "removeTollBooth",
      "outputs": [
        {
          "name": "success",
          "type": "bool"
        }
      ],
      "payable": false,
      "stateMutability": "nonpayable",
      "type": "function"
    },
    {
      "constant": false,
      "inputs": [
        {
          "name": "newOwner",
          "type": "address"
        }
      ],
      "name": "setOwner",
      "outputs": [
        {
          "name": "success",
          "type": "bool"
        }
      ],
      "payable": false,
      "stateMutability": "nonpayable",
      "type": "function"
    },
    {
      "constant": false,
      "inputs": [
        {
          "name": "tollBooth",
          "type": "address"
        }
      ],
      "name": "addTollBooth",
      "outputs": [
        {
          "name": "success",
          "type": "bool"
        }
      ],
      "payable": false,
      "stateMutability": "nonpayable",
      "type": "function"
    },
    {
      "constant": true,
      "inputs": [
        {
          "name": "tollBooth",
          "type": "address"
        }
      ],
      "name": "isTollBooth",
      "outputs": [
        {
          "name": "isIndeed",
          "type": "bool"
        }
      ],
      "payable": false,
      "stateMutability": "view",
      "type": "function"
    },
    {
      "constant": true,
      "inputs": [],
      "name": "getOwner",
      "outputs": [
        {
          "name": "owner",
          "type": "address"
        }
      ],
      "payable": false,
      "stateMutability": "view",
      "type": "function"
    },
    {
      "anonymous": false,
      "inputs": [
        {
          "indexed": true,
          "name": "sender",
          "type": "address"
        },
        {
          "indexed": true,
          "name": "tollBooth",
          "type": "address"
        }
      ],
      "name": "LogTollBoothAdded",
      "type": "event"
    },
    {
      "anonymous": false,
      "inputs": [
        {
          "indexed": true,
          "name": "sender",
          "type": "address"
        },
        {
          "indexed": true,
          "name": "tollBooth",
          "type": "address"
        }
      ],
      "name": "LogTollBoothRemoved",
      "type": "event"
    },
    {
      "anonymous": false,
      "inputs": [
        {
          "indexed": true,
          "name": "previousOwner",
          "type": "address"
        },
        {
          "indexed": true,
          "name": "newOwner",
          "type": "address"
        }
      ],
      "name": "LogOwnerSet",
      "type": "event"
    }
  ],
  "bytecode": "0x6060604052336000806101000a81548173ffffffffffffffffffffffffffffffffffffffff021916908373ffffffffffffffffffffffffffffffffffffffff1602179055506107c7806100536000396000f30060606040526004361061006d576000357c0100000000000000000000000000000000000000000000000000000000900463ffffffff1680630bbbcbb21461007257806313af4035146100c35780632c333eab1461011457806350bb553a14610165578063893d20e8146101b6575b600080fd5b341561007d57600080fd5b6100a9600480803573ffffffffffffffffffffffffffffffffffffffff1690602001909190505061020b565b604051808215151515815260200191505060405180910390f35b34156100ce57600080fd5b6100fa600480803573ffffffffffffffffffffffffffffffffffffffff169060200190919050506103b7565b604051808215151515815260200191505060405180910390f35b341561011f57600080fd5b61014b600480803573ffffffffffffffffffffffffffffffffffffffff16906020019091905050610570565b604051808215151515815260200191505060405180910390f35b341561017057600080fd5b61019c600480803573ffffffffffffffffffffffffffffffffffffffff1690602001909190505061071c565b604051808215151515815260200191505060405180910390f35b34156101c157600080fd5b6101c9610772565b604051808273ffffffffffffffffffffffffffffffffffffffff1673ffffffffffffffffffffffffffffffffffffffff16815260200191505060405180910390f35b60008060009054906101000a900473ffffffffffffffffffffffffffffffffffffffff1673ffffffffffffffffffffffffffffffffffffffff163373ffffffffffffffffffffffffffffffffffffffff1614151561026857600080fd5b600160008373ffffffffffffffffffffffffffffffffffffffff1673ffffffffffffffffffffffffffffffffffffffff16815260200190815260200160002060009054906101000a900460ff1615156102c057600080fd5b600073ffffffffffffffffffffffffffffffffffffffff168273ffffffffffffffffffffffffffffffffffffffff16141515156102fc57600080fd5b6000600160008473ffffffffffffffffffffffffffffffffffffffff1673ffffffffffffffffffffffffffffffffffffffff16815260200190815260200160002060006101000a81548160ff021916908315150217905550600190508173ffffffffffffffffffffffffffffffffffffffff163373ffffffffffffffffffffffffffffffffffffffff167f5b34220b1e6888774f5c1badf295633d5d8d4ae02d5e3019e422b3debfe8967860405160405180910390a3919050565b60008060009054906101000a900473ffffffffffffffffffffffffffffffffffffffff1673ffffffffffffffffffffffffffffffffffffffff163373ffffffffffffffffffffffffffffffffffffffff1614151561041457600080fd5b6000809054906101000a900473ffffffffffffffffffffffffffffffffffffffff1673ffffffffffffffffffffffffffffffffffffffff168273ffffffffffffffffffffffffffffffffffffffff161415151561047057600080fd5b600073ffffffffffffffffffffffffffffffffffffffff168273ffffffffffffffffffffffffffffffffffffffff16141515156104ac57600080fd5b8173ffffffffffffffffffffffffffffffffffffffff166000809054906101000a900473ffffffffffffffffffffffffffffffffffffffff1673ffffffffffffffffffffffffffffffffffffffff167fa1d2149652d81eb35c360c115fc7ac594124cb1ea8a5a33e9a7f5768c62869fb60405160405180910390a3816000806101000a81548173ffffffffffffffffffffffffffffffffffffffff021916908373ffffffffffffffffffffffffffffffffffffffff16021790555060019050919050565b60008060009054906101000a900473ffffffffffffffffffffffffffffffffffffffff1673ffffffffffffffffffffffffffffffffffffffff163373ffffffffffffffffffffffffffffffffffffffff161415156105cd57600080fd5b600160008373ffffffffffffffffffffffffffffffffffffffff1673ffffffffffffffffffffffffffffffffffffffff16815260200190815260200160002060009054906101000a900460ff1615151561062657600080fd5b600073ffffffffffffffffffffffffffffffffffffffff168273ffffffffffffffffffffffffffffffffffffffff161415151561066257600080fd5b60018060008473ffffffffffffffffffffffffffffffffffffffff1673ffffffffffffffffffffffffffffffffffffffff16815260200190815260200160002060006101000a81548160ff021916908315150217905550600190508173ffffffffffffffffffffffffffffffffffffffff163373ffffffffffffffffffffffffffffffffffffffff167fe8f587f6ae5ef5f7560b94b9369dd242c9de0588c328add1a785044abf837c6d60405160405180910390a3919050565b6000600160008373ffffffffffffffffffffffffffffffffffffffff1673ffffffffffffffffffffffffffffffffffffffff16815260200190815260200160002060009054906101000a900460ff169050919050565b60008060009054906101000a900473ffffffffffffffffffffffffffffffffffffffff169050905600a165627a7a723058202eeb24433ff71ae0596fc46b51f17eab5858d8b7b9dbb80639d7e52dd44af4e90029",
  "source": "pragma solidity ^0.4.13;\n\nimport \"./Owned.sol\";\nimport \"./interfaces/TollBoothHolderI.sol\";\n\ncontract TollBoothHolder is Owned, TollBoothHolderI {\n    mapping(address=>bool) boothsList;\n\n    /**\n     * Called by the owner of the TollBoothOperator.\n     *     It should roll back if the caller is not the owner of the contract.\n     *     It should roll back if the argument is already a toll booth.\n     *     It should roll back if the argument is a 0x address.\n     *     When part of TollBoothOperatorI, it should be possible to add toll booths even when\n     *       the contract is paused.\n     * @param tollBooth The address of the toll booth being added.\n     * @return Whether the action was successful.\n     * Emits LogTollBoothAdded\n     */\n    function addTollBooth(address tollBooth)\n        public fromOwner\n        returns(bool success)\n    {\n        require(!boothsList[tollBooth]);\n        require(tollBooth != address(0));\n\n        boothsList[tollBooth] = true;\n\n        success = true;\n        LogTollBoothAdded(msg.sender, tollBooth);\n    }\n\n    /**\n     * @param tollBooth The address of the toll booth we enquire about.\n     * @return Whether the toll booth is indeed part of the operator.\n     */\n    function isTollBooth(address tollBooth)\n        constant\n        public\n        returns(bool isIndeed)\n    {\n        isIndeed = boothsList[tollBooth];\n    }\n\n    /**\n     * Called by the owner of the TollBoothOperator.\n     *     It should roll back if the caller is not the owner of the contract.\n     *     It should roll back if the argument has already been removed.\n     *     It should roll back if the argument is a 0x address.\n     *     When part of TollBoothOperatorI, it should be possible to remove toll booth even when\n     *       the contract is paused.\n     * @param tollBooth The toll booth to remove.\n     * @return Whether the action was successful.\n     * Emits LogTollBoothRemoved\n     */\n    function removeTollBooth(address tollBooth)\n        public fromOwner\n        returns(bool success)\n    {\n        require(boothsList[tollBooth]);\n        require(tollBooth != address(0));\n\n        boothsList[tollBooth] = false;\n\n        success = true;\n        LogTollBoothRemoved(msg.sender, tollBooth);\n    }\n\n    /*\n     * You need to create:\n     *\n     * - a contract named `TollBoothHolder` that:\n     *     - is `OwnedI`, `TollBoothHolderI`.\n     *     - has a constructor that takes no parameter.\n     */        \n}",
  "sourcePath": "/Users/halovast/DAPPS/contractFactory/exam-step-2/contracts/TollBoothHolder.sol",
  "compiler": {
    "name": "solc",
    "version": "0.4.18+commit.9cf6e910.Emscripten.clang"
  },
  "schemaVersion": "1.0.1",
  "updatedAt": "2018-02-28T22:58:15.303Z"
}