{
  "contractName": "TollBoothOperator",
  "abi": [
    {
      "constant": false,
      "inputs": [
        {
          "name": "tollBooth",
          "type": "address"
        }
      ],
      "name": "removeTollBooth",
      "outputs": [
        {
          "name": "success",
          "type": "bool"
        }
      ],
      "payable": false,
      "stateMutability": "nonpayable",
      "type": "function"
    },
    {
      "constant": false,
      "inputs": [
        {
          "name": "newOwner",
          "type": "address"
        }
      ],
      "name": "setOwner",
      "outputs": [
        {
          "name": "success",
          "type": "bool"
        }
      ],
      "payable": false,
      "stateMutability": "nonpayable",
      "type": "function"
    },
    {
      "constant": false,
      "inputs": [
        {
          "name": "newState",
          "type": "bool"
        }
      ],
      "name": "setPaused",
      "outputs": [
        {
          "name": "success",
          "type": "bool"
        }
      ],
      "payable": false,
      "stateMutability": "nonpayable",
      "type": "function"
    },
    {
      "constant": false,
      "inputs": [
        {
          "name": "entryBooth",
          "type": "address"
        },
        {
          "name": "exitBooth",
          "type": "address"
        },
        {
          "name": "count",
          "type": "uint256"
        }
      ],
      "name": "clearSomePendingPayments",
      "outputs": [
        {
          "name": "success",
          "type": "bool"
        }
      ],
      "payable": false,
      "stateMutability": "nonpayable",
      "type": "function"
    },
    {
      "constant": false,
      "inputs": [
        {
          "name": "tollBooth",
          "type": "address"
        }
      ],
      "name": "addTollBooth",
      "outputs": [
        {
          "name": "success",
          "type": "bool"
        }
      ],
      "payable": false,
      "stateMutability": "nonpayable",
      "type": "function"
    },
    {
      "constant": false,
      "inputs": [
        {
          "name": "vehicleType",
          "type": "uint256"
        },
        {
          "name": "multiplier",
          "type": "uint256"
        }
      ],
      "name": "setMultiplier",
      "outputs": [
        {
          "name": "success",
          "type": "bool"
        }
      ],
      "payable": false,
      "stateMutability": "nonpayable",
      "type": "function"
    },
    {
      "constant": false,
      "inputs": [
        {
          "name": "exitSecretClear",
          "type": "bytes32"
        }
      ],
      "name": "reportExitRoad",
      "outputs": [
        {
          "name": "status",
          "type": "uint256"
        }
      ],
      "payable": false,
      "stateMutability": "nonpayable",
      "type": "function"
    },
    {
      "constant": true,
      "inputs": [
        {
          "name": "entryBooth",
          "type": "address"
        },
        {
          "name": "exitBooth",
          "type": "address"
        }
      ],
      "name": "getRoutePrice",
      "outputs": [
        {
          "name": "priceWeis",
          "type": "uint256"
        }
      ],
      "payable": false,
      "stateMutability": "view",
      "type": "function"
    },
    {
      "constant": true,
      "inputs": [
        {
          "name": "tollBooth",
          "type": "address"
        }
      ],
      "name": "isTollBooth",
      "outputs": [
        {
          "name": "isIndeed",
          "type": "bool"
        }
      ],
      "payable": false,
      "stateMutability": "view",
      "type": "function"
    },
    {
      "constant": true,
      "inputs": [
        {
          "name": "secret",
          "type": "bytes32"
        }
      ],
      "name": "hashSecret",
      "outputs": [
        {
          "name": "hashed",
          "type": "bytes32"
        }
      ],
      "payable": false,
      "stateMutability": "view",
      "type": "function"
    },
    {
      "constant": true,
      "inputs": [
        {
          "name": "exitSecretHashed",
          "type": "bytes32"
        }
      ],
      "name": "getVehicleEntry",
      "outputs": [
        {
          "name": "vehicle",
          "type": "address"
        },
        {
          "name": "entryBooth",
          "type": "address"
        },
        {
          "name": "depositedWeis",
          "type": "uint256"
        }
      ],
      "payable": false,
      "stateMutability": "view",
      "type": "function"
    },
    {
      "constant": true,
      "inputs": [],
      "name": "getOwner",
      "outputs": [
        {
          "name": "owner",
          "type": "address"
        }
      ],
      "payable": false,
      "stateMutability": "view",
      "type": "function"
    },
    {
      "constant": false,
      "inputs": [
        {
          "name": "entryBooth",
          "type": "address"
        },
        {
          "name": "exitSecretHashed",
          "type": "bytes32"
        }
      ],
      "name": "enterRoad",
      "outputs": [
        {
          "name": "success",
          "type": "bool"
        }
      ],
      "payable": true,
      "stateMutability": "payable",
      "type": "function"
    },
    {
      "constant": true,
      "inputs": [],
      "name": "getCollectedFeesAmount",
      "outputs": [
        {
          "name": "amount",
          "type": "uint256"
        }
      ],
      "payable": false,
      "stateMutability": "view",
      "type": "function"
    },
    {
      "constant": true,
      "inputs": [
        {
          "name": "vehicleType",
          "type": "uint256"
        }
      ],
      "name": "getMultiplier",
      "outputs": [
        {
          "name": "multiplier",
          "type": "uint256"
        }
      ],
      "payable": false,
      "stateMutability": "view",
      "type": "function"
    },
    {
      "constant": true,
      "inputs": [],
      "name": "isPaused",
      "outputs": [
        {
          "name": "isIndeed",
          "type": "bool"
        }
      ],
      "payable": false,
      "stateMutability": "view",
      "type": "function"
    },
    {
      "constant": true,
      "inputs": [],
      "name": "getDeposit",
      "outputs": [
        {
          "name": "weis",
          "type": "uint256"
        }
      ],
      "payable": false,
      "stateMutability": "view",
      "type": "function"
    },
    {
      "constant": true,
      "inputs": [
        {
          "name": "entryBooth",
          "type": "address"
        },
        {
          "name": "exitBooth",
          "type": "address"
        }
      ],
      "name": "getPendingPaymentCount",
      "outputs": [
        {
          "name": "count",
          "type": "uint256"
        }
      ],
      "payable": false,
      "stateMutability": "view",
      "type": "function"
    },
    {
      "constant": false,
      "inputs": [
        {
          "name": "newRegulator",
          "type": "address"
        }
      ],
      "name": "setRegulator",
      "outputs": [
        {
          "name": "success",
          "type": "bool"
        }
      ],
      "payable": false,
      "stateMutability": "nonpayable",
      "type": "function"
    },
    {
      "constant": false,
      "inputs": [],
      "name": "withdrawCollectedFees",
      "outputs": [
        {
          "name": "success",
          "type": "bool"
        }
      ],
      "payable": false,
      "stateMutability": "nonpayable",
      "type": "function"
    },
    {
      "constant": false,
      "inputs": [
        {
          "name": "entryBooth",
          "type": "address"
        },
        {
          "name": "exitBooth",
          "type": "address"
        },
        {
          "name": "priceWeis",
          "type": "uint256"
        }
      ],
      "name": "setRoutePrice",
      "outputs": [
        {
          "name": "success",
          "type": "bool"
        }
      ],
      "payable": false,
      "stateMutability": "nonpayable",
      "type": "function"
    },
    {
      "constant": false,
      "inputs": [
        {
          "name": "depositWeis",
          "type": "uint256"
        }
      ],
      "name": "setDeposit",
      "outputs": [
        {
          "name": "success",
          "type": "bool"
        }
      ],
      "payable": false,
      "stateMutability": "nonpayable",
      "type": "function"
    },
    {
      "constant": true,
      "inputs": [],
      "name": "getRegulator",
      "outputs": [
        {
          "name": "regulator",
          "type": "address"
        }
      ],
      "payable": false,
      "stateMutability": "view",
      "type": "function"
    },
    {
      "inputs": [
        {
          "name": "_state",
          "type": "bool"
        },
        {
          "name": "_deposit",
          "type": "uint256"
        },
        {
          "name": "_regulator",
          "type": "address"
        }
      ],
      "payable": false,
      "stateMutability": "nonpayable",
      "type": "constructor"
    },
    {
      "payable": false,
      "stateMutability": "nonpayable",
      "type": "fallback"
    },
    {
      "anonymous": false,
      "inputs": [
        {
          "indexed": true,
          "name": "vehicle",
          "type": "address"
        },
        {
          "indexed": true,
          "name": "entryBooth",
          "type": "address"
        },
        {
          "indexed": true,
          "name": "exitSecretHashed",
          "type": "bytes32"
        },
        {
          "indexed": false,
          "name": "depositedWeis",
          "type": "uint256"
        }
      ],
      "name": "LogRoadEntered",
      "type": "event"
    },
    {
      "anonymous": false,
      "inputs": [
        {
          "indexed": true,
          "name": "exitBooth",
          "type": "address"
        },
        {
          "indexed": true,
          "name": "exitSecretHashed",
          "type": "bytes32"
        },
        {
          "indexed": false,
          "name": "finalFee",
          "type": "uint256"
        },
        {
          "indexed": false,
          "name": "refundWeis",
          "type": "uint256"
        }
      ],
      "name": "LogRoadExited",
      "type": "event"
    },
    {
      "anonymous": false,
      "inputs": [
        {
          "indexed": true,
          "name": "exitSecretHashed",
          "type": "bytes32"
        },
        {
          "indexed": true,
          "name": "entryBooth",
          "type": "address"
        },
        {
          "indexed": true,
          "name": "exitBooth",
          "type": "address"
        }
      ],
      "name": "LogPendingPayment",
      "type": "event"
    },
    {
      "anonymous": false,
      "inputs": [
        {
          "indexed": true,
          "name": "owner",
          "type": "address"
        },
        {
          "indexed": false,
          "name": "amount",
          "type": "uint256"
        }
      ],
      "name": "LogFeesCollected",
      "type": "event"
    },
    {
      "anonymous": false,
      "inputs": [
        {
          "indexed": true,
          "name": "previousRegulator",
          "type": "address"
        },
        {
          "indexed": true,
          "name": "newRegulator",
          "type": "address"
        }
      ],
      "name": "LogRegulatorSet",
      "type": "event"
    },
    {
      "anonymous": false,
      "inputs": [
        {
          "indexed": true,
          "name": "sender",
          "type": "address"
        },
        {
          "indexed": true,
          "name": "entryBooth",
          "type": "address"
        },
        {
          "indexed": true,
          "name": "exitBooth",
          "type": "address"
        },
        {
          "indexed": false,
          "name": "priceWeis",
          "type": "uint256"
        }
      ],
      "name": "LogRoutePriceSet",
      "type": "event"
    },
    {
      "anonymous": false,
      "inputs": [
        {
          "indexed": true,
          "name": "sender",
          "type": "address"
        },
        {
          "indexed": true,
          "name": "tollBooth",
          "type": "address"
        }
      ],
      "name": "LogTollBoothAdded",
      "type": "event"
    },
    {
      "anonymous": false,
      "inputs": [
        {
          "indexed": true,
          "name": "sender",
          "type": "address"
        },
        {
          "indexed": true,
          "name": "tollBooth",
          "type": "address"
        }
      ],
      "name": "LogTollBoothRemoved",
      "type": "event"
    },
    {
      "anonymous": false,
      "inputs": [
        {
          "indexed": true,
          "name": "sender",
          "type": "address"
        },
        {
          "indexed": true,
          "name": "vehicleType",
          "type": "uint256"
        },
        {
          "indexed": false,
          "name": "multiplier",
          "type": "uint256"
        }
      ],
      "name": "LogMultiplierSet",
      "type": "event"
    },
    {
      "anonymous": false,
      "inputs": [
        {
          "indexed": true,
          "name": "sender",
          "type": "address"
        },
        {
          "indexed": false,
          "name": "depositWeis",
          "type": "uint256"
        }
      ],
      "name": "LogDepositSet",
      "type": "event"
    },
    {
      "anonymous": false,
      "inputs": [
        {
          "indexed": true,
          "name": "sender",
          "type": "address"
        },
        {
          "indexed": true,
          "name": "newPausedState",
          "type": "bool"
        }
      ],
      "name": "LogPausedSet",
      "type": "event"
    },
    {
      "anonymous": false,
      "inputs": [
        {
          "indexed": true,
          "name": "previousOwner",
          "type": "address"
        },
        {
          "indexed": true,
          "name": "newOwner",
          "type": "address"
        }
      ],
      "name": "LogOwnerSet",
      "type": "event"
    }
  ],
  "bytecode": "0x606060405234156200001057600080fd5b60405160608062002c6a83398101604052808051906020019091908051906020019091908051906020019091905050808284336000806101000a81548173ffffffffffffffffffffffffffffffffffffffff021916908373ffffffffffffffffffffffffffffffffffffffff16021790555080600060146101000a81548160ff0219169083151502179055505060008114151515620000ae57600080fd5b8060018190555050600073ffffffffffffffffffffffffffffffffffffffff168173ffffffffffffffffffffffffffffffffffffffff1614151515620000f357600080fd5b80600560006101000a81548173ffffffffffffffffffffffffffffffffffffffff021916908373ffffffffffffffffffffffffffffffffffffffff16021790555050600082141515156200014657600080fd5b600073ffffffffffffffffffffffffffffffffffffffff168173ffffffffffffffffffffffffffffffffffffffff16141515156200018357600080fd5b505050612ad480620001966000396000f300606060405260043610610133576000357c0100000000000000000000000000000000000000000000000000000000900463ffffffff1680630bbbcbb21461014357806313af40351461019457806316c38b3c146101e5578063226dfb42146102225780632c333eab1461029b578063333271d0146102ec57806339a874861461033057806350295c671461036b57806350bb553a146103d7578063552c1e55146104285780637527b1ca1461046b578063893d20e81461050c578063954d4add1461056157806399763af6146105b4578063adf8252d146105dd578063b187bd2614610614578063c399ec8814610641578063cb3c4cbc1461066a578063cde0a4f8146106d6578063dd47050f14610727578063e23d7c5b14610754578063f5bade66146107cd578063f7e317f414610808575b341561013e57600080fd5b600080fd5b341561014e57600080fd5b61017a600480803573ffffffffffffffffffffffffffffffffffffffff1690602001909190505061085d565b604051808215151515815260200191505060405180910390f35b341561019f57600080fd5b6101cb600480803573ffffffffffffffffffffffffffffffffffffffff16906020019091905050610a09565b604051808215151515815260200191505060405180910390f35b34156101f057600080fd5b61020860048080351515906020019091905050610bc2565b604051808215151515815260200191505060405180910390f35b341561022d57600080fd5b610281600480803573ffffffffffffffffffffffffffffffffffffffff1690602001909190803573ffffffffffffffffffffffffffffffffffffffff16906020019091908035906020019091905050610caa565b604051808215151515815260200191505060405180910390f35b34156102a657600080fd5b6102d2600480803573ffffffffffffffffffffffffffffffffffffffff16906020019091905050611136565b604051808215151515815260200191505060405180910390f35b34156102f757600080fd5b61031660048080359060200190919080359060200190919050506112e3565b604051808215151515815260200191505060405180910390f35b341561033b57600080fd5b6103556004808035600019169060200190919050506113e3565b6040518082815260200191505060405180910390f35b341561037657600080fd5b6103c1600480803573ffffffffffffffffffffffffffffffffffffffff1690602001909190803573ffffffffffffffffffffffffffffffffffffffff169060200190919050506118f6565b6040518082815260200191505060405180910390f35b34156103e257600080fd5b61040e600480803573ffffffffffffffffffffffffffffffffffffffff169060200190919050506119b4565b604051808215151515815260200191505060405180910390f35b341561043357600080fd5b61044d600480803560001916906020019091905050611a0a565b60405180826000191660001916815260200191505060405180910390f35b341561047657600080fd5b610490600480803560001916906020019091905050611a31565b604051808473ffffffffffffffffffffffffffffffffffffffff1673ffffffffffffffffffffffffffffffffffffffff1681526020018373ffffffffffffffffffffffffffffffffffffffff1673ffffffffffffffffffffffffffffffffffffffff168152602001828152602001935050505060405180910390f35b341561051757600080fd5b61051f611ae0565b604051808273ffffffffffffffffffffffffffffffffffffffff1673ffffffffffffffffffffffffffffffffffffffff16815260200191505060405180910390f35b61059a600480803573ffffffffffffffffffffffffffffffffffffffff1690602001909190803560001916906020019091905050611b09565b604051808215151515815260200191505060405180910390f35b34156105bf57600080fd5b6105c7611e44565b6040518082815260200191505060405180910390f35b34156105e857600080fd5b6105fe6004808035906020019091905050611e4e565b6040518082815260200191505060405180910390f35b341561061f57600080fd5b610627611e6b565b604051808215151515815260200191505060405180910390f35b341561064c57600080fd5b610654611e81565b6040518082815260200191505060405180910390f35b341561067557600080fd5b6106c0600480803573ffffffffffffffffffffffffffffffffffffffff1690602001909190803573ffffffffffffffffffffffffffffffffffffffff16906020019091905050611e8b565b6040518082815260200191505060405180910390f35b34156106e157600080fd5b61070d600480803573ffffffffffffffffffffffffffffffffffffffff16906020019091905050611f49565b604051808215151515815260200191505060405180910390f35b341561073257600080fd5b61073a612106565b604051808215151515815260200191505060405180910390f35b341561075f57600080fd5b6107b3600480803573ffffffffffffffffffffffffffffffffffffffff1690602001909190803573ffffffffffffffffffffffffffffffffffffffff16906020019091908035906020019091905050612218565b604051808215151515815260200191505060405180910390f35b34156107d857600080fd5b6107ee600480803590602001909190505061262e565b604051808215151515815260200191505060405180910390f35b341561081357600080fd5b61081b61270a565b604051808273ffffffffffffffffffffffffffffffffffffffff1673ffffffffffffffffffffffffffffffffffffffff16815260200191505060405180910390f35b60008060009054906101000a900473ffffffffffffffffffffffffffffffffffffffff1673ffffffffffffffffffffffffffffffffffffffff163373ffffffffffffffffffffffffffffffffffffffff161415156108ba57600080fd5b600360008373ffffffffffffffffffffffffffffffffffffffff1673ffffffffffffffffffffffffffffffffffffffff16815260200190815260200160002060009054906101000a900460ff16151561091257600080fd5b600073ffffffffffffffffffffffffffffffffffffffff168273ffffffffffffffffffffffffffffffffffffffff161415151561094e57600080fd5b6000600360008473ffffffffffffffffffffffffffffffffffffffff1673ffffffffffffffffffffffffffffffffffffffff16815260200190815260200160002060006101000a81548160ff021916908315150217905550600190508173ffffffffffffffffffffffffffffffffffffffff163373ffffffffffffffffffffffffffffffffffffffff167f5b34220b1e6888774f5c1badf295633d5d8d4ae02d5e3019e422b3debfe8967860405160405180910390a3919050565b60008060009054906101000a900473ffffffffffffffffffffffffffffffffffffffff1673ffffffffffffffffffffffffffffffffffffffff163373ffffffffffffffffffffffffffffffffffffffff16141515610a6657600080fd5b6000809054906101000a900473ffffffffffffffffffffffffffffffffffffffff1673ffffffffffffffffffffffffffffffffffffffff168273ffffffffffffffffffffffffffffffffffffffff1614151515610ac257600080fd5b600073ffffffffffffffffffffffffffffffffffffffff168273ffffffffffffffffffffffffffffffffffffffff1614151515610afe57600080fd5b8173ffffffffffffffffffffffffffffffffffffffff166000809054906101000a900473ffffffffffffffffffffffffffffffffffffffff1673ffffffffffffffffffffffffffffffffffffffff167fa1d2149652d81eb35c360c115fc7ac594124cb1ea8a5a33e9a7f5768c62869fb60405160405180910390a3816000806101000a81548173ffffffffffffffffffffffffffffffffffffffff021916908373ffffffffffffffffffffffffffffffffffffffff16021790555060019050919050565b60008060009054906101000a900473ffffffffffffffffffffffffffffffffffffffff1673ffffffffffffffffffffffffffffffffffffffff163373ffffffffffffffffffffffffffffffffffffffff16141515610c1f57600080fd5b600060149054906101000a900460ff16151582151514151515610c4157600080fd5b8115153373ffffffffffffffffffffffffffffffffffffffff167fae0f86d9801b0bd39a2ce25d9fd1f202f2fd22e80150be4a99adb0275a635d6c60405160405180910390a381600060146101000a81548160ff02191690831515021790555060019050919050565b600080600080600080600080600080600080600060149054906101000a900460ff16151515610cd857600080fd5b610ce18f6119b4565b8015610cf25750610cf18e6119b4565b5b1515610cfd57600080fd5b60008d111515610d0c57600080fd5b8e8e604051808373ffffffffffffffffffffffffffffffffffffffff1673ffffffffffffffffffffffffffffffffffffffff166c010000000000000000000000000281526014018273ffffffffffffffffffffffffffffffffffffffff1673ffffffffffffffffffffffffffffffffffffffff166c010000000000000000000000000281526014019250505060405180910390209a508c600760008d600019166000191681526020019081526020016000205410151515610dcc57600080fd5b610dd68f8f6118f6565b995060009850600197505b8c8811158015610e0e5750600860008c600019166000191681526020019081526020016000208054905089105b1561112057600860008c6000191660001916815260200190815260200160002089815481101515610e3b57fe5b906000526020600020900154965060066000886000191660001916815260200190815260200160002060020154955060008614151561110157600560009054906101000a900473ffffffffffffffffffffffffffffffffffffffff1694508473ffffffffffffffffffffffffffffffffffffffff16630d2ce522600660008a6000191660001916815260200190815260200160002060000160009054906101000a900473ffffffffffffffffffffffffffffffffffffffff166000604051602001526040518263ffffffff167c0100000000000000000000000000000000000000000000000000000000028152600401808273ffffffffffffffffffffffffffffffffffffffff1673ffffffffffffffffffffffffffffffffffffffff168152602001915050602060405180830381600087803b1515610f7a57600080fd5b6102c65a03f11515610f8b57600080fd5b505050604051805190509350610fa084611e4e565b9250828a0291506000600660008960001916600019168152602001908152602001600020600201819055506001600760008d60001916600019168152602001908152602001600020600082825403925050819055508582101561108557818603905060066000886000191660001916815260200190815260200160002060000160009054906101000a900473ffffffffffffffffffffffffffffffffffffffff1673ffffffffffffffffffffffffffffffffffffffff166108fc829081150290604051600060405180830381858888f19350505050151561108057600080fd5b611089565b8591505b81600960008282540192505081905550888060010199505086600019168e73ffffffffffffffffffffffffffffffffffffffff167fcc28c1c2c2269c01d739ef1a54d12784fe3052b2f228668ba5f4bc862ebe51bc8484604051808381526020018281526020019250505060405180910390a3611113565b87806001900398505088806001019950505b8780600101985050610de1565b60019b5050505050505050505050509392505050565b60008060009054906101000a900473ffffffffffffffffffffffffffffffffffffffff1673ffffffffffffffffffffffffffffffffffffffff163373ffffffffffffffffffffffffffffffffffffffff1614151561119357600080fd5b600360008373ffffffffffffffffffffffffffffffffffffffff1673ffffffffffffffffffffffffffffffffffffffff16815260200190815260200160002060009054906101000a900460ff161515156111ec57600080fd5b600073ffffffffffffffffffffffffffffffffffffffff168273ffffffffffffffffffffffffffffffffffffffff161415151561122857600080fd5b6001600360008473ffffffffffffffffffffffffffffffffffffffff1673ffffffffffffffffffffffffffffffffffffffff16815260200190815260200160002060006101000a81548160ff021916908315150217905550600190508173ffffffffffffffffffffffffffffffffffffffff163373ffffffffffffffffffffffffffffffffffffffff167fe8f587f6ae5ef5f7560b94b9369dd242c9de0588c328add1a785044abf837c6d60405160405180910390a3919050565b60008060009054906101000a900473ffffffffffffffffffffffffffffffffffffffff1673ffffffffffffffffffffffffffffffffffffffff163373ffffffffffffffffffffffffffffffffffffffff1614151561134057600080fd5b6000831415151561135057600080fd5b8160026000858152602001908152602001600020541415151561137257600080fd5b816002600085815260200190815260200160002081905550823373ffffffffffffffffffffffffffffffffffffffff167f5e168e70d5925560e1407b68dc2495afbc25b36217cc6e4167b2cf3f28a46ef1846040518082815260200191505060405180910390a36001905092915050565b60008060008060008060008060008060008060149054906101000a900460ff1615151561140f57600080fd5b6114188c611a0a565b9950600660008b6000191660001916815260200190815260200160002060010160009054906101000a900473ffffffffffffffffffffffffffffffffffffffff169850611464336119b4565b151561146f57600080fd5b8873ffffffffffffffffffffffffffffffffffffffff163373ffffffffffffffffffffffffffffffffffffffff16141515156114aa57600080fd5b600073ffffffffffffffffffffffffffffffffffffffff168973ffffffffffffffffffffffffffffffffffffffff16141515156114e657600080fd5b600560009054906101000a900473ffffffffffffffffffffffffffffffffffffffff16975061151589336118f6565b96508773ffffffffffffffffffffffffffffffffffffffff16630d2ce522600660008d6000191660001916815260200190815260200160002060000160009054906101000a900473ffffffffffffffffffffffffffffffffffffffff166000604051602001526040518263ffffffff167c0100000000000000000000000000000000000000000000000000000000028152600401808273ffffffffffffffffffffffffffffffffffffffff1673ffffffffffffffffffffffffffffffffffffffff168152602001915050602060405180830381600087803b15156115f857600080fd5b6102c65a03f1151561160957600080fd5b50505060405180519050955061161e86611e4e565b94508487029350600084141561179e578833604051808373ffffffffffffffffffffffffffffffffffffffff1673ffffffffffffffffffffffffffffffffffffffff166c010000000000000000000000000281526014018273ffffffffffffffffffffffffffffffffffffffff1673ffffffffffffffffffffffffffffffffffffffff166c010000000000000000000000000281526014019250505060405180910390209250600160076000856000191660001916815260200190815260200160002060008282540192505081905550600860008460001916600019168152602001908152602001600020805480600101828161171b9190612a57565b916000526020600020900160008c9091909150906000191690555060029a503373ffffffffffffffffffffffffffffffffffffffff168973ffffffffffffffffffffffffffffffffffffffff168b600019167f739c4108960ded7f9e5e6790da2d3baebfb37959560441b5787b8c70676d873c60405160405180910390a46118e7565b60019a50600660008b600019166000191681526020019081526020016000206002015490506000600660008c600019166000191681526020019081526020016000206002018190555080841015611877578381039150600660008b6000191660001916815260200190815260200160002060000160009054906101000a900473ffffffffffffffffffffffffffffffffffffffff1673ffffffffffffffffffffffffffffffffffffffff166108fc839081150290604051600060405180830381858888f19350505050151561187257600080fd5b61187b565b8093505b8360096000828254019250508190555089600019163373ffffffffffffffffffffffffffffffffffffffff167fcc28c1c2c2269c01d739ef1a54d12784fe3052b2f228668ba5f4bc862ebe51bc8685604051808381526020018281526020019250505060405180910390a35b50505050505050505050919050565b6000808383604051808373ffffffffffffffffffffffffffffffffffffffff1673ffffffffffffffffffffffffffffffffffffffff166c010000000000000000000000000281526014018273ffffffffffffffffffffffffffffffffffffffff1673ffffffffffffffffffffffffffffffffffffffff166c0100000000000000000000000002815260140192505050604051809103902090506004600082600019166000191681526020019081526020016000205491505092915050565b6000600360008373ffffffffffffffffffffffffffffffffffffffff1673ffffffffffffffffffffffffffffffffffffffff16815260200190815260200160002060009054906101000a900460ff169050919050565b60008160405180826000191660001916815260200191505060405180910390209050919050565b600080600060066000856000191660001916815260200190815260200160002060000160009054906101000a900473ffffffffffffffffffffffffffffffffffffffff16925060066000856000191660001916815260200190815260200160002060010160009054906101000a900473ffffffffffffffffffffffffffffffffffffffff1691506006600085600019166000191681526020019081526020016000206002015490509193909250565b60008060009054906101000a900473ffffffffffffffffffffffffffffffffffffffff16905090565b60008060008060008060149054906101000a900460ff16151515611b2c57600080fd5b611b35876119b4565b1515611b4057600080fd5b600560009054906101000a900473ffffffffffffffffffffffffffffffffffffffff1693508373ffffffffffffffffffffffffffffffffffffffff16630d2ce522336000604051602001526040518263ffffffff167c0100000000000000000000000000000000000000000000000000000000028152600401808273ffffffffffffffffffffffffffffffffffffffff1673ffffffffffffffffffffffffffffffffffffffff168152602001915050602060405180830381600087803b1515611c0857600080fd5b6102c65a03f11515611c1957600080fd5b505050604051805190509250611c2e83611e4e565b9150611c38611e81565b905060008314151515611c4a57600080fd5b60008214151515611c5a57600080fd5b8181023410151515611c6b57600080fd5b600060066000886000191660001916815260200190815260200160002060010160009054906101000a900473ffffffffffffffffffffffffffffffffffffffff1673ffffffffffffffffffffffffffffffffffffffff16141515611cce57600080fd5b6060604051908101604052803373ffffffffffffffffffffffffffffffffffffffff1681526020018873ffffffffffffffffffffffffffffffffffffffff1681526020013481525060066000886000191660001916815260200190815260200160002060008201518160000160006101000a81548173ffffffffffffffffffffffffffffffffffffffff021916908373ffffffffffffffffffffffffffffffffffffffff16021790555060208201518160010160006101000a81548173ffffffffffffffffffffffffffffffffffffffff021916908373ffffffffffffffffffffffffffffffffffffffff160217905550604082015181600201559050506001945085600019168773ffffffffffffffffffffffffffffffffffffffff163373ffffffffffffffffffffffffffffffffffffffff167f26213b556e4ae8dd63f1f81f4ea6181803d9a3efcad477cd84dcae45a264c30b346040518082815260200191505060405180910390a45050505092915050565b6000600954905090565b600060026000838152602001908152602001600020549050919050565b60008060149054906101000a900460ff16905090565b6000600154905090565b6000808383604051808373ffffffffffffffffffffffffffffffffffffffff1673ffffffffffffffffffffffffffffffffffffffff166c010000000000000000000000000281526014018273ffffffffffffffffffffffffffffffffffffffff1673ffffffffffffffffffffffffffffffffffffffff166c0100000000000000000000000002815260140192505050604051809103902090506007600082600019166000191681526020019081526020016000205491505092915050565b6000600560009054906101000a900473ffffffffffffffffffffffffffffffffffffffff1673ffffffffffffffffffffffffffffffffffffffff163373ffffffffffffffffffffffffffffffffffffffff16141515611fa757600080fd5b600073ffffffffffffffffffffffffffffffffffffffff168273ffffffffffffffffffffffffffffffffffffffff1614151515611fe357600080fd5b600560009054906101000a900473ffffffffffffffffffffffffffffffffffffffff1673ffffffffffffffffffffffffffffffffffffffff168273ffffffffffffffffffffffffffffffffffffffff161415151561204057600080fd5b8173ffffffffffffffffffffffffffffffffffffffff16600560009054906101000a900473ffffffffffffffffffffffffffffffffffffffff1673ffffffffffffffffffffffffffffffffffffffff167fa32c4b1f26f0d877f643f7fb9db131f9cebf04d120fe5ada74c0bdfc808dab8360405160405180910390a381600560006101000a81548173ffffffffffffffffffffffffffffffffffffffff021916908373ffffffffffffffffffffffffffffffffffffffff16021790555060019050919050565b6000806000809054906101000a900473ffffffffffffffffffffffffffffffffffffffff1673ffffffffffffffffffffffffffffffffffffffff163373ffffffffffffffffffffffffffffffffffffffff1614151561216457600080fd5b600060095411151561217557600080fd5b60095490503373ffffffffffffffffffffffffffffffffffffffff167f851c9440e522074225f247c12030d8a38be67fbda82238aac95d4a4454647f9d826040518082815260200191505060405180910390a260006009819055503373ffffffffffffffffffffffffffffffffffffffff166108fc829081150290604051600060405180830381858888f19350505050151561221057600080fd5b600191505090565b60008060008060008060008060008060006122348e8e8e612734565b1561261d578d8d604051808373ffffffffffffffffffffffffffffffffffffffff1673ffffffffffffffffffffffffffffffffffffffff166c010000000000000000000000000281526014018273ffffffffffffffffffffffffffffffffffffffff1673ffffffffffffffffffffffffffffffffffffffff166c01000000000000000000000000028152601401925050506040518091039020995060009850600197505b600188111580156123065750600860008b600019166000191681526020019081526020016000208054905089105b1561261857600860008b600019166000191681526020019081526020016000208981548110151561233357fe5b90600052602060002090015496506006600088600019166000191681526020019081526020016000206002015495506000861415156125f957600560009054906101000a900473ffffffffffffffffffffffffffffffffffffffff1694508473ffffffffffffffffffffffffffffffffffffffff16630d2ce522600660008a6000191660001916815260200190815260200160002060000160009054906101000a900473ffffffffffffffffffffffffffffffffffffffff166000604051602001526040518263ffffffff167c0100000000000000000000000000000000000000000000000000000000028152600401808273ffffffffffffffffffffffffffffffffffffffff1673ffffffffffffffffffffffffffffffffffffffff168152602001915050602060405180830381600087803b151561247257600080fd5b6102c65a03f1151561248357600080fd5b50505060405180519050935061249884611e4e565b9250828c0291506000600660008960001916600019168152602001908152602001600020600201819055506001600760008c60001916600019168152602001908152602001600020600082825403925050819055508582101561257d57818603905060066000886000191660001916815260200190815260200160002060000160009054906101000a900473ffffffffffffffffffffffffffffffffffffffff1673ffffffffffffffffffffffffffffffffffffffff166108fc829081150290604051600060405180830381858888f19350505050151561257857600080fd5b612581565b8591505b81600960008282540192505081905550888060010199505086600019168d73ffffffffffffffffffffffffffffffffffffffff167fcc28c1c2c2269c01d739ef1a54d12784fe3052b2f228668ba5f4bc862ebe51bc8484604051808381526020018281526020019250505060405180910390a361260b565b87806001900398505088806001019950505b87806001019850506122d8565b60019a505b505050505050505050509392505050565b60008060009054906101000a900473ffffffffffffffffffffffffffffffffffffffff1673ffffffffffffffffffffffffffffffffffffffff163373ffffffffffffffffffffffffffffffffffffffff1614151561268b57600080fd5b6000821415151561269b57600080fd5b60015482141515156126ac57600080fd5b81600181905550600190503373ffffffffffffffffffffffffffffffffffffffff167ffa53ebd539f52eb4ef352ffacb2f8f5f8080cd8bb7ebb2f1acab3e1ce4bd65cb836040518082815260200191505060405180910390a2919050565b6000600560009054906101000a900473ffffffffffffffffffffffffffffffffffffffff16905090565b6000806000809054906101000a900473ffffffffffffffffffffffffffffffffffffffff1673ffffffffffffffffffffffffffffffffffffffff163373ffffffffffffffffffffffffffffffffffffffff1614151561279257600080fd5b600360008673ffffffffffffffffffffffffffffffffffffffff1673ffffffffffffffffffffffffffffffffffffffff16815260200190815260200160002060009054906101000a900460ff1680156128345750600360008573ffffffffffffffffffffffffffffffffffffffff1673ffffffffffffffffffffffffffffffffffffffff16815260200190815260200160002060009054906101000a900460ff165b151561283f57600080fd5b8373ffffffffffffffffffffffffffffffffffffffff168573ffffffffffffffffffffffffffffffffffffffff161415151561287a57600080fd5b600073ffffffffffffffffffffffffffffffffffffffff168573ffffffffffffffffffffffffffffffffffffffff16141580156128e45750600073ffffffffffffffffffffffffffffffffffffffff168473ffffffffffffffffffffffffffffffffffffffff1614155b15156128ef57600080fd5b8484604051808373ffffffffffffffffffffffffffffffffffffffff1673ffffffffffffffffffffffffffffffffffffffff166c010000000000000000000000000281526014018273ffffffffffffffffffffffffffffffffffffffff1673ffffffffffffffffffffffffffffffffffffffff166c0100000000000000000000000002815260140192505050604051809103902090508260046000836000191660001916815260200190815260200160002054141515156129af57600080fd5b8260046000836000191660001916815260200190815260200160002081905550600191508373ffffffffffffffffffffffffffffffffffffffff168573ffffffffffffffffffffffffffffffffffffffff163373ffffffffffffffffffffffffffffffffffffffff167f5b631b37e5dfb698eace7497bcae58e93fac69e007127739fc79109d99c58332866040518082815260200191505060405180910390a4509392505050565b815481835581811511612a7e57818360005260206000209182019101612a7d9190612a83565b5b505050565b612aa591905b80821115612aa1576000816000905550600101612a89565b5090565b905600a165627a7a723058209a585869b6b9f0aab0c198411cf9a2025f3cc3ea9bbb80114ac6258f6af43be70029",
  "source": "pragma solidity ^0.4.13;\n\nimport \"./Pausable.sol\";\nimport \"./DepositHolder.sol\";\nimport \"./MultiplierHolder.sol\";\nimport \"./RoutePriceHolder.sol\";\nimport \"./Regulated.sol\";\nimport \"./interfaces/TollBoothOperatorI.sol\";\nimport \"./interfaces/RegulatorI.sol\";\n\ncontract TollBoothOperator is Pausable, DepositHolder, MultiplierHolder, RoutePriceHolder, Regulated, TollBoothOperatorI {\n    struct VehicleOnRoad {\n\t\taddress vehicle;\n        address entryBooth;\n\t\tuint depositAmount;\n\t}\n\tmapping(bytes32=>VehicleOnRoad) vehiclesOnRoad;\n    mapping(bytes32=>uint) pendingPaymentCounter;\n    mapping(bytes32=>bytes32[]) pendingPayments;\n    uint collectedFee;\n    \n\n    function TollBoothOperator(bool _state, uint _deposit, address _regulator) DepositHolder(_deposit) Pausable(_state) Regulated(_regulator) {\n        require(_deposit != 0);\n        require(_regulator != address(0));\n    }\n\n    function() {revert();}\n\n    /**\n     * This provides a single source of truth for the encoding algorithm.\n     * @param secret The secret to be hashed.\n     * @return the hashed secret.\n     */\n    function hashSecret(bytes32 secret)\n        constant\n        public\n        returns(bytes32 hashed)\n    {\n        hashed = keccak256(secret);\n    }\n\n    /**\n     * Called by the vehicle entering a road system.\n     * Off-chain, the entry toll booth will open its gate up successful deposit and confirmation\n     * of the vehicle identity.\n     *     It should roll back when the contract is in the `true` paused state.\n     *     It should roll back if `entryBooth` is not a tollBooth.\n     *     It should roll back if less than deposit * multiplier was sent alongside.\n     *     It should be possible for a vehicle to enter \"again\" before it has exited from the \n     *       previous entry.\n     * @param entryBooth The declared entry booth by which the vehicle will enter the system.\n     * @param exitSecretHashed A hashed secret that when solved allows the operator to pay itself.\n     *   A previously used exitSecretHashed cannot be used ever again.\n     * @return Whether the action was successful.\n     * Emits LogRoadEntered.\n     */\n    function enterRoad(\n            address entryBooth,\n            bytes32 exitSecretHashed)\n        public whenNotPaused\n        payable\n        returns (bool success)\n    {\n        require(isTollBooth(entryBooth));\n        \n\t\tRegulatorI _myRegulator = RegulatorI(myRegulator);\n        uint vehicleType = _myRegulator.getVehicleType(msg.sender);\n\t\tuint multiplier = getMultiplier(vehicleType);\n\t\tuint depositValue = getDeposit();\n\t\t\n        require(vehicleType != 0);\n        require(multiplier != 0);\n        require(msg.value >= depositValue*multiplier);\n        require(vehiclesOnRoad[exitSecretHashed].entryBooth == 0);\n\n        vehiclesOnRoad[exitSecretHashed] = VehicleOnRoad({\n\t\t\tvehicle : msg.sender,\n            entryBooth : entryBooth,\n\t\t    depositAmount : msg.value\n        });\n\n        success = true;\n        LogRoadEntered(msg.sender, entryBooth, exitSecretHashed, msg.value);\n    }\n\n    /**\n     * @param exitSecretHashed The hashed secret used by the vehicle when entering the road.\n     * @return The information pertaining to the entry of the vehicle.\n     *     vehicle: the address of the vehicle that entered the system.\n     *     entryBooth: the address of the booth the vehicle entered at.\n     *     depositedWeis: how much the vehicle deposited when entering.\n     * After the vehicle has exited, `depositedWeis` should be returned as `0`.\n     * If no vehicles had ever entered with this hash, all values should be returned as `0`.\n     */\n    function getVehicleEntry(bytes32 exitSecretHashed)\n        constant\n        public\n        returns(\n            address vehicle,\n            address entryBooth,\n            uint depositedWeis)\n    {\n        vehicle = vehiclesOnRoad[exitSecretHashed].vehicle;\n        entryBooth = vehiclesOnRoad[exitSecretHashed].entryBooth;\n        depositedWeis = vehiclesOnRoad[exitSecretHashed].depositAmount;\n    }\n\n    /**\n     * Called by the exit booth.\n     *     It should roll back when the contract is in the `true` paused state.\n     *     It should roll back when the sender is not a toll booth.\n     *     It should roll back if the exit is same as the entry.\n     *     It should roll back if the secret does not match a hashed one.\n     * @param exitSecretClear The secret given by the vehicle as it passed by the exit booth.\n     * @return status:\n     *   1: success, -> emits LogRoadExited\n     *   2: pending oracle -> emits LogPendingPayment\n     */\n    function reportExitRoad(bytes32 exitSecretClear)\n        public whenNotPaused\n        returns (uint status)\n    {\n        bytes32 exitSecretHashed = hashSecret(exitSecretClear);\n        address entryBooth = vehiclesOnRoad[exitSecretHashed].entryBooth;\n\n        require(isTollBooth(msg.sender));\n        require(msg.sender != entryBooth);\n        require(entryBooth != address(0));\n\n        RegulatorI _myRegulator = RegulatorI(myRegulator);\n        uint fee = getRoutePrice(entryBooth, msg.sender);\n        uint vehicleType = _myRegulator.getVehicleType(vehiclesOnRoad[exitSecretHashed].vehicle);\n        uint multiplier = getMultiplier(vehicleType);\n        uint finalFee = fee*multiplier;\n\n        if (finalFee == 0) {\n            bytes32 hashKey = keccak256(entryBooth, msg.sender);\n            pendingPaymentCounter[hashKey] += 1;\n            pendingPayments[hashKey].push(exitSecretHashed);\n            status = 2;\n            LogPendingPayment(exitSecretHashed, entryBooth, msg.sender);\n        } else {\n            status = 1;\n            uint refund;\n            uint tempDeposit = vehiclesOnRoad[exitSecretHashed].depositAmount;\n            vehiclesOnRoad[exitSecretHashed].depositAmount = 0;\n            if (finalFee < tempDeposit) {\n                refund = tempDeposit-finalFee;\n                vehiclesOnRoad[exitSecretHashed].vehicle.transfer(refund);\n            } else {\n                finalFee = tempDeposit;\n            }\n            collectedFee += finalFee;\n\n            LogRoadExited(msg.sender, exitSecretHashed, finalFee, refund);\n        }\n    }\n\n    /**\n     * @param entryBooth the entry booth that has pending payments.\n     * @param exitBooth the exit booth that has pending payments.\n     * @return the number of payments that are pending because the price for the\n     * entry-exit pair was unknown.\n     */\n    function getPendingPaymentCount(address entryBooth, address exitBooth)\n        constant\n        public\n        returns (uint count)\n    {\n        bytes32 hashKey = keccak256(entryBooth, exitBooth);\n        count = pendingPaymentCounter[hashKey];\n    }\n\n    /**\n     * Can be called by anyone. In case more than 1 payment was pending when the oracle gave a price.\n     *     It should roll back when the contract is in `true` paused state.\n     *     It should roll back if booths are not really booths.\n     *     It should roll back if there are fewer than `count` pending payment that are solvable.\n     *     It should roll back if `count` is `0`.\n     * @param entryBooth the entry booth that has pending payments.\n     * @param exitBooth the exit booth that has pending payments.\n     * @param count the number of pending payments to clear for the exit booth.\n     * @return Whether the action was successful.\n     * Emits LogRoadExited as many times as count.\n     */\n    function clearSomePendingPayments(\n            address entryBooth,\n            address exitBooth,\n            uint count)\n        public whenNotPaused\n        returns (bool success)\n    {\n        require(isTollBooth(entryBooth) && isTollBooth(exitBooth));\n\t\trequire(count > 0);\n        bytes32 hashKey = keccak256(entryBooth, exitBooth);\n        require(pendingPaymentCounter[hashKey] >= count);\n\n        uint fee = getRoutePrice(entryBooth, exitBooth);\n        uint x = 0;\n\n        for (uint i = 1; i <= count && x < pendingPayments[hashKey].length; i++) {\n            \n            bytes32 exitSecretHashed = pendingPayments[hashKey][x];\n            uint deposit = vehiclesOnRoad[exitSecretHashed].depositAmount;\n            if(deposit != 0) {\n                RegulatorI _myRegulator = RegulatorI(myRegulator);\n                uint vehicleType = _myRegulator.getVehicleType(vehiclesOnRoad[exitSecretHashed].vehicle);\n                uint multiplier = getMultiplier(vehicleType);\n                uint finalFee = fee*multiplier;\n                uint refund;\n\n                vehiclesOnRoad[exitSecretHashed].depositAmount = 0;\n                pendingPaymentCounter[hashKey] -= 1;\n                \n                if (finalFee < deposit) {\n                    refund = deposit-finalFee;\n                    vehiclesOnRoad[exitSecretHashed].vehicle.transfer(refund);\n                } else {\n                    finalFee = deposit;\n                }\n\n                collectedFee += finalFee;\n                x++;\n                LogRoadExited(exitBooth, exitSecretHashed, finalFee, refund);\n            } else {\n                i--;\n                x++;\n            }\n        }\n        success = true;\n    }\n\n    /**\n     * @return The amount that has been collected through successful payments. This is the current\n     *   amount, it does not reflect historical fees. So this value goes back to zero after a call\n     *   to `withdrawCollectedFees`.\n     */\n    function getCollectedFeesAmount()\n        constant\n        public\n        returns(uint amount)\n    {\n        amount = collectedFee;\n    }\n\n    /**\n     * Called by the owner of the contract to withdraw all collected fees (not deposits) to date.\n     *     It should roll back if any other address is calling this function.\n     *     It should roll back if there is no fee to collect.\n     *     It should roll back if the transfer failed.\n     * @return success Whether the operation was successful.\n     * Emits LogFeesCollected.\n     */\n    function withdrawCollectedFees()\n        public fromOwner\n        returns(bool success)\n    {\n        require(collectedFee > 0);\n\n        uint feeToTransfer = collectedFee;\n        LogFeesCollected(msg.sender, feeToTransfer);\n        collectedFee = 0;\n        msg.sender.transfer(feeToTransfer);\n        \n        success = true;\n    }\n\n    /**\n     * This function overrides the eponymous function of `RoutePriceHolderI`, to which it adds the following\n     * functionality:\n     *     - If relevant, it will release 1 pending payment for this route. As part of this payment\n     *       release, it will emit the appropriate `LogRoadExited` event.\n     *     - In the case where the next relevant pending payment is not solvable, which can happen if,\n     *       for instance the vehicle has had wrongly set values in the interim:\n     *       - It should release 0 pending payment\n     *       - It should not roll back the transaction\n     *       - It should behave as if there had been no pending payment, apart from the higher gas consumed.\n     *     - It should be possible to call it even when the contract is in the `true` paused state.\n     * Emits LogRoadExited if applicable.\n     */\n     function setRoutePrice(\n            address entryBooth,\n            address exitBooth,\n            uint priceWeis)\n        public\n        returns(bool success)\n    {\n        if (super.setRoutePrice(entryBooth, exitBooth, priceWeis)) {\n            bytes32 hashKey = keccak256(entryBooth, exitBooth);\n            uint x = 0;\n\n            for (uint i = 1; i <= 1 && x < pendingPayments[hashKey].length; i++) {\n                bytes32 exitSecretHashed = pendingPayments[hashKey][x];\n                uint deposit = vehiclesOnRoad[exitSecretHashed].depositAmount;\n                if(deposit != 0) {\n                    RegulatorI _myRegulator = RegulatorI(myRegulator);\n                    uint vehicleType = _myRegulator.getVehicleType(vehiclesOnRoad[exitSecretHashed].vehicle);\n                    uint multiplier = getMultiplier(vehicleType);\n                    uint finalFee = priceWeis*multiplier;\n                    uint refund;\n\n                    vehiclesOnRoad[exitSecretHashed].depositAmount = 0;\n                    pendingPaymentCounter[hashKey] -= 1;\n                    \n                    if (finalFee < deposit) {\n                        refund = deposit-finalFee;\n                        vehiclesOnRoad[exitSecretHashed].vehicle.transfer(refund);\n                    } else {\n                        finalFee = deposit;\n                    }\n\n                    collectedFee += finalFee;\n                    x++;\n                    LogRoadExited(exitBooth, exitSecretHashed, finalFee, refund);\n                } else {\n                    i--;\n                    x++;\n                }\n            }\n            success = true;\n        }\n    }\n\n\n    /*\n     * You need to create:\n     *\n     * - a contract named `TollBoothOperator` that:\n     *     - is `OwnedI`, `PausableI`, `DepositHolderI`, `TollBoothHolderI`,\n     *         `MultiplierHolderI`, `RoutePriceHolderI`, `RegulatedI` and `TollBoothOperatorI`.\n     *     - has a constructor that takes:\n     *         - one `bool` parameter, the initial paused state.\n     *         - one `uint` parameter, the initial deposit wei value, which cannot be 0.\n     *         - one `address` parameter, the initial regulator, which cannot be 0.\n     */\n}",
  "sourcePath": "/Users/halovast/DAPPS/contractFactory/exam-step-2/contracts/TollBoothOperator.sol",
  "compiler": {
    "name": "solc",
    "version": "0.4.18+commit.9cf6e910.Emscripten.clang"
  },
  "schemaVersion": "1.0.1",
  "updatedAt": "2018-02-28T22:58:16.234Z"
}